:100000000C94DF000C9407010C9407010C94070179
:100010000C9407010C9407010C9407010C94070140
:100020000C9407010C9407010C9407010C94070130
:100030000C9407010C9407010C9407010C94070120
:100040000C94D20A0C9407010C94A00A0C947A0A1E
:100050000C9407010C9407010C9407010C94070100
:100060000C9407010C940701494E50555400535409
:100070004154455343414E004E4F5F444953504C09
:1000800041595F434C4541523D300055495F5459F9
:1000900050453D300050414745535550504F525404
:1000A0003D3100495347454E455249433D3100508B
:1000B00049443D434654204E61762E205261646986
:1000C0006F202F43505400415554484F523D6439DE
:1000D0003233373934336637353936386438316539
:1000E0003132616666313261383561323430003226
:1000F000004E41562E20526164696F2043505420B7
:100100002D20436F726520466C69676874205465C2
:1001100063680036356632393330362D65316437E1
:100120002D346135352D616664392D3231643831B5
:1001300034363763313030005350414400494E501B
:1001400055540000000000240027002A0000000091
:1001500000250028002B00000000002300260029B5
:100160000004040404040404040202020202020360
:10017000030303030301020408102040800102046A
:1001800008102001020408102041545441434849FA
:100190004E472043414C4C4241434B532100000009
:1001A0000008000201000003040700000000000036
:1001B00000004F555450555400001C0BFA0E1124EA
:1001C0001FBECFEFD8E0DEBFCDBF25E0A6E4B2E092
:1001D00001C01D92AF3BB207E1F712E0A0E0B1E031
:1001E000E8EFF3E202C005900D92A634B107D9F70B
:1001F00010E0CEEDD0E004C02197FE010E94EE0F8A
:10020000CD3DD107C9F70E94960B0C94EF110C94C9
:100210000000AC01109204039091540580915305A5
:10022000FA01BF01641B750B2091040330813093E8
:100230000403931304C0921302C01092040330818C
:10024000311104C0921721F0CB0108953817D1F372
:100250003196E7CF0F931F93CF93DF93809148059B
:10026000882309F446C0D0E0C0E0813029F482E060
:1002700080934805C8E0D3E080914905882341F187
:10028000209721F4C0914D05D0914E058E01CE01ED
:100290000E940901892B29F42196F801808181119E
:1002A000F5CFF8018081882309F1C8010E94090176
:1002B000F801E80FF91F8081882311F01082319630
:1002C000F0934E05E0934D0510934C0500934B05BC
:1002D00080914B0590914C05892B59F081E08093DA
:1002E0004905DF91CF911F910F91089510E000E033
:1002F000EBCF80E0F6CF209160023091610282174F
:10030000930738F420915C0230915D02211531058C
:1003100029F410925B028BE592E00895820F931FFF
:100320000895DC01ED91FC910190F081E02D09949C
:10033000EF92FF920F931F93CF93DF932091FF02D1
:100340002223E9F08C016091530580915005909132
:1003500051050E949101E0905005F0905105E8018F
:10036000FE016491662359F0D701ED91FC91019053
:10037000F081E02DC70109952196892B89F7DF913E
:10038000CF911F910F91FF90EF900895CF93DF933E
:100390002091FF022223D1F0EC016091530580915E
:1003A0005005909151050E949101809150059091C6
:1003B00051054C815D8168817981DC01ED91FC9171
:1003C0000280F381E02DDF91CF910994DF91CF91ED
:1003D0000895AF92BF92CF92DF92EF92FF920F9368
:1003E0001F93CF93DF936C017B018B01040F151FCB
:1003F000EB015E01AE18BF08C017D10759F0699133
:10040000D601ED91FC910190F081E02DC601099596
:10041000892B79F7C501DF91CF911F910F91FF9043
:10042000EF90DF90CF90BF90AF900895FC01538D77
:10043000448D252F30E0842F90E0821B930B5417BE
:1004400010F0CF96089501970895FC01918D828D4B
:10045000981761F0A28DAE0FBF2FB11D5D968C91E4
:10046000928D9F5F9F73928F90E008958FEF9FEF23
:100470000895FC01918D828D981731F0828DE80FDF
:10048000F11D858D90E008958FEF9FEF0895FC0199
:10049000918D228D892F90E0805C9F4F821B910966
:1004A0008F739927089582E692E00E94470221E027
:1004B000892B09F420E0822F089580E090E0892BB9
:1004C00029F00E94530281110C9400000895FC0150
:1004D000A48DA80FB92FB11DA35ABF4F2C91848DA5
:1004E00090E001968F739927848FA689B7892C9302
:1004F000A089B1898C91837080648C93938D848D55
:10050000981306C00288F389E02D80818F7D808357
:100510000895EF92FF920F931F93CF93DF93EC0117
:1005200081E0888F9B8D8C8D98131AC0E889F9899A
:10053000808185FF15C09FB7F894EE89FF8960839D
:10054000E889F98980818370806480839FBF81E01E
:1005500090E0DF91CF911F910F91FF90EF90089560
:10056000F62E0B8D10E00F5F1F4F0F731127E02E3B
:100570008C8D8E110CC00FB607FCFACFE889F98973
:10058000808185FFF5CFCE010E946702F1CFEB8D10
:10059000EC0FFD2FF11DE35AFF4FF0829FB7F89447
:1005A0000B8FEA89FB8980818062CFCFCF93DF9365
:1005B000EC01888D8823B9F0AA89BB89E889F9897B
:1005C0008C9185FD03C0808186FD0DC00FB607FCB0
:1005D000F7CF8C9185FFF2CF808185FFEDCFCE01E3
:1005E0000E946702E9CFDF91CF910895833081F0B7
:1005F00028F4813099F08230A9F008958730A9F06D
:100600008830C9F08430B1F4809180008F7D03C0C0
:10061000809180008F7780938000089584B58F77D4
:1006200084BD089584B58F7DFBCF8091B0008F7716
:100630008093B00008958091B0008F7DF9CFCF9363
:10064000DF93282F30E0F901E256FE4F8491F90143
:10065000EB58FE4FD491F901EF59FE4FC491CC23D2
:10066000A1F081110E94F602EC2FF0E0EE0FFF1FC7
:10067000E95AFE4FA591B491EC91ED2381E090E011
:1006800009F480E0DF91CF91089580E090E0FACF07
:100690001F93CF93DF93282F30E0F901E256FE4FEE
:1006A0008491F901EB58FE4FD491F901EF59FE4FB7
:1006B000C491CC23A9F0162F81110E94F602EC2FD1
:1006C000F0E0EE0FFF1FE35BFE4FA591B4918FB7F3
:1006D000F894EC91111108C0D095DE23DC938FBF04
:1006E000DF91CF911F910895DE2BF8CFCF93DF9349
:1006F00090E0FC01EB58FE4F24918F599E4FFC0176
:1007000084918823D1F090E0880F991FFC01ED5B64
:10071000FE4FA591B491FC01E35BFE4FC591D491CE
:10072000623071F49FB7F8943C91822F80958323B7
:100730008C93E8812E2B28839FBFDF91CF91089562
:100740008FB7F894EC912E2B2C938FBFF6CFCF93CD
:10075000DF93EC0161E08BE00E947603209731F497
:1007600060E08BE0DF91CF910C944803CF3FD1053F
:1007700011F461E0F6CFE9EAF1E0E491E33029F128
:1007800040F4E130B1F0E230D9F0C038D1058CF757
:10079000E7CFE73021F1E83051F1E430B1F7809153
:1007A0008000806280938000D0938B00C0938A0089
:1007B00004C084B5806884BDC7BDDF91CF91089522
:1007C00084B5806284BDC8BDF8CF80918000806808
:1007D00080938000D0938900C0938800EECF8091F1
:1007E000B00080688093B000C093B300E6CF8091E2
:1007F000B00080628093B000C093B400DECF3FB7FA
:10080000F8948091470290914802A0914902B091DA
:100810004A0226B5A89B05C02F3F19F00196A11DDD
:10082000B11D3FBFBA2FA92F982F8827BC01CD013A
:10083000620F711D811D911D42E0660F771F881F99
:10084000991F4A95D1F708958F929F92AF92BF92C8
:10085000CF92DF92EF92FF924B015C010E94FF0367
:100860006B017C010E94FF036C197D098E099F09B1
:10087000683E734081059105A8F321E0821A910832
:10088000A108B10888EEC80E83E0D81EE11CF11C57
:1008900081149104A104B10429F7FF90EF90DF9037
:1008A000CF90BF90AF909F908F9008959F92AF92FE
:1008B000BF92CF92DF92EF92FF920F931F93CF934D
:1008C000DF93A82EC62E90904D0260E0892D0E94E5
:1008D000480308E010E030E8E32EF12CB12CD09171
:1008E0004F02C5018E219F2161E0892B09F460E050
:1008F0008D2F0E944803C0914B0261E08C2F0E9413
:10090000480360E08C2F0E944803F594E79401505F
:10091000110929F708E010E090E8E92EF12CD12C1C
:10092000C6018E219F2161E0892B09F460E08D2FA3
:100930000E94480361E08C2F0E94480360E08C2FE6
:100940000E944803F594E7940150110949F761E0CA
:10095000892DDF91CF911F910F91FF90EF90DF9044
:10096000CF90BF90AF909F900C94480390E080E0B0
:100970000E947B01FC01608186E00E94560481E0B8
:1009800090E00E947B01FC01608185E00E9456049A
:1009900082E090E00E947B01FC016081605884E06D
:1009A0000E94560483E090E00E947B01FC0160817C
:1009B00083E00E94560484E090E00E947B01FC01E9
:1009C000608182E00C9456040E942A01882359F029
:1009D00081E08093490580934A0580914B05909171
:1009E0004C050C941C0F10924A0560E070E0CB019E
:1009F0000895FB0101900020E9F73197AF01461BF4
:100A0000570BDC01ED91FC910280F381E02D0994FC
:100A10008091FF028823A1F06091520580915005DA
:100A2000909151050E94910180910703882341F024
:100A300066E471E080915005909151050E94F9049F
:100A4000109206031092FF0280E008958F929F9209
:100A5000AF92BF92EF92FF920F931F93CF93DF93CA
:100A6000CDB7DEB7A1970FB6F894DEBF0FBECDBFEE
:100A70007C01FA01CB0119A2223008F42AE08E0190
:100A80000F5D1F4F822E912CB12CA12CBF01A5010F
:100A900094010E94CC0FF901CA016A300CF5605D27
:100AA000D8016E938D01232B242B252B79F790E011
:100AB00080E0109721F0BD01C7010E94F904A196C2
:100AC0000FB6F894DEBF0FBECDBFDF91CF911F915F
:100AD0000F91FF90EF90BF90AF909F908F900895EF
:100AE000695CDECFCF92DF92EF92FF920F931F935C
:100AF000CF93DF9377FF1DC06A017B01EC016DE2AC
:100B00000E9491018C0144275527BA014C195D09B7
:100B10006E097F092AE0CE010E942605800F911FF1
:100B2000DF91CF911F910F91FF90EF90DF90CF90C9
:100B300008952AE0DF91CF911F910F91FF90EF90E0
:100B4000DF90CF900C9426050F931F93CF93DF93E4
:100B5000EC0100E515E060915305F8018081918179
:100B60000E949101AE01DD0F660B770BF8018081C9
:100B70009181DF91CF911F910F910C94720590910B
:100B8000FF02911110C091E09093FF029093060331
:100B9000482F50E070E060E02AE08091500590918D
:100BA00051050C9426050895CF93DF932091FF0201
:100BB000222391F0EC0160915305809150059091B2
:100BC00051050E949101BE018091500590915105FF
:100BD000DF91CF910C94F904DF91CF910895CF93D9
:100BE000DF939091FF0291110AC0EB010E94BF05B3
:100BF000CE010E94D405DF91CF910C94080580E0CE
:100C0000DF91CF91089569E471E083E00C94EF05E2
:100C1000CF93DF930E942A018823B1F081E0809373
:100C2000490580934A05C0914B05D0914C0569E573
:100C300071E0CE010E94DF11892B59F481E080938D
:100C40005A02DF91CF91089510924A05D0E0C0E09A
:100C5000EECF6FE571E0CE010E94DF11892B89F79D
:100C600010925A02EECF0F931F93CF93DF93EC01B4
:100C700088819981009759F02A813B81261737078F
:100C800030F081E0DF91CF911F910F9108958B019A
:100C90006F5F7F4F0E941911009759F099838883E5
:100CA0001B830A832C813D81232B59F7FC01108281
:100CB000E8CF80E0E7CFEF92FF920F931F93CF939F
:100CC000DF9341155105B1F07B01EC010C811D81D1
:100CD000040F151FB8010E943306882361F0288194
:100CE00039818C819D81B701820F931F0E94E81189
:100CF0001D830C8381E0DF91CF911F910F91FF90B5
:100D0000EF900895EF92FF920F931F93CF93DF938D
:100D1000CDB7DEB728970FB6F894DEBF0FBECDBFB4
:100D20007C01CB014AE08E010F5F1F4FB8010E948A
:100D3000430FF80101900020E9F73197AF01401B04
:100D4000510BB801C7010E945B0628960FB6F894B4
:100D5000DEBF0FBECDBFDF91CF911F910F91FF90EE
:100D6000EF900895EF92FF920F931F93CF93DF932D
:100D700000D000D0CDB7DEB77C01862F4AE08E01CF
:100D80000F5F1F4FB80190E00E94430FF8010190E0
:100D90000020E9F73197AF01401B510BB801C701A3
:100DA0000E945B060F900F900F900F90DF91CF91F4
:100DB0001F910F91FF90EF900895CF93DF93EC0177
:100DC00088819981009711F00E94901019821882F1
:100DD0001D821C821B821A82DF91CF910895EF92AF
:100DE000FF920F931F93CF93DF93EC018617970722
:100DF00081F0FB01008111810115110539F0E480BA
:100E0000F580B7010E94330681110BC0CE010E940C
:100E1000DD06CE01DF91CF911F910F91FF90EF90F2
:100E20000895FD82EC82B801888199810E94E811C1
:100E3000F0CFFC011182108213821282158214827B
:100E40000C94EF06EF92FF920F931F93CF93DF93D3
:100E5000EC01198218821B821A821D821C82611584
:100E6000710521F18B01FB0101900020E9F7319719
:100E70007F01E61AF70AB7010E943306811109C003
:100E8000CE01DF91CF911F910F91FF90EF900C94C5
:100E9000DD06FD82EC82B80188819981DF91CF91D6
:100EA0001F910F91FF90EF900C94E811DF91CF917B
:100EB0001F910F91FF90EF900895FC018081918127
:100EC000009711F00C9490100895EF92FF920F93F9
:100ED0001F93CF93DF93CDB7DEB72C970FB6F8945F
:100EE000DEBF0FBECDBF7C018B0180E00E94BF053D
:100EF00082EB91E00E9498018091FF02882319F013
:100F0000C7010E94A405B801CE0101960E941907ED
:100F1000CE0101960E94C601CE0101960E945D0796
:100F200088E691E00E94D40583E691E00E94D40512
:100F300060E771E0CE0107960E94220766E070E04C
:100F4000CE0107960E948206BE01695F7F4FCE01E7
:100F500001960E941907CE0101960E94C601CE019A
:100F600001960E945D0788E791E00E94D4058FE713
:100F700091E00E94D4058BE891E00E94D40585E9B8
:100F800091E00E94D4058FE991E00E94D4050E946F
:100F90000805CE0107960E945D072C960FB6F894BF
:100FA000DEBF0FBECDBFDF91CF911F910F91FF909C
:100FB000EF900895CF92DF92EF92FF92CF93DF935D
:100FC00000D000D000D0CDB7DEB70E94E4046B01A2
:100FD0007C010E94E4040E94E4040E942A01882308
:100FE00009F43FC081E08093490580934A056091F0
:100FF0004B0570914C05CE0101960E94220781E0BD
:10100000C816D104E104F10489F58AE090E09093D8
:10101000500280934F0289E090E090934E028093BB
:101020004D028CE090E090934C0280934B02BE0105
:101030006F5F7F4F8CE592E00E94EF060E94B6043E
:10104000CE0101960E945D0726960FB6F894DEBF8A
:101050000FBECDBFDF91CF91FF90EF90DF90CF908B
:10106000089510924A0570E060E0C5CF82E0C8168E
:10107000D104E104F10421F787E090E0909350025D
:1010800080934F0286E090E090934E0280934D0251
:1010900088E090E0C8CFAF92BF92CF92DF92EF92FC
:1010A000FF920F931F93CF93DF9300D000D000D017
:1010B000CDB7DEB75C016B017A01890180E00E9447
:1010C000BF058DE391E00E9498018091FF02882383
:1010D00019F0C5010E94A405B601CE0101960E9437
:1010E0001907CE0101960E94C601CE0101960E9409
:1010F0005D07B701CE0101960E941907CE01019646
:101100000E94C601CE0101960E945D07B801CE0182
:1011100001960E941907CE0101960E94C601CE01D8
:1011200001960E945D070E94080526960FB6F89466
:10113000DEBF0FBECDBFDF91CF911F910F91FF900A
:10114000EF90DF90CF90BF90AF900895CF92DF9255
:10115000EF92FF920F931F93CF93DF93CDB7DEB73C
:1011600068970FB6F894DEBF0FBECDBF0E942A016C
:101170008823A1F181E08093490580934A0500917D
:101180004B0510914C056BEA71E0C8010E94DF111C
:10119000892B49F580E00E94BF0588E391E00E9419
:1011A000980183E191E00E94980181EF90E00E9414
:1011B00098018091FF02882321F082E090E00E9454
:1011C000A4058FEE90E00E94980187EC90E00E94C9
:1011D00098018FEA90E00E9498012BC010924A0576
:1011E00010E000E0D0CF60EB71E0C8010E94DF1199
:1011F000892B81F580E00E94BF0585EB91E00E947C
:10120000D4050E94E4046B017C018091FF028823D5
:1012100081F06091530580915005909151050E9495
:101220009101B701A60180915005909151050E944E
:1012300072050E94080568960FB6F894DEBF0FBECF
:10124000CDBFDF91CF911F910F91FF90EF90DF9075
:10125000CF9008956AEB71E0C8010E94DF11892BDD
:1012600009F02DC180E00E94BF0581EC91E00E9451
:10127000D40583EA90E00E94980185E990E00E94FD
:1012800098018BE890E00E94980188E790E00E9426
:1012900098010E94080568EC71E0CE010D960E944D
:1012A00022076DEC71E0CE0107960E94220768EDDF
:1012B00071E0CE0101960E9422079E01235F3F4FFD
:1012C000AE01495F5F4FBE016F5F7F4F81E090E0ED
:1012D0000E944B08CE0101960E945D07CE01079641
:1012E0000E945D07CE010D960E945D0768EC71E0DB
:1012F000CE010D960E9422076DEC71E0CE0107969B
:101300000E94220765EE71E0CE0101960E9422073D
:101310009E01235F3F4FAE01495F5F4FBE016F5F8C
:101320007F4F82E090E00E944B08CE0101960E9420
:101330005D07CE0107960E945D07CE010D960E94C3
:101340005D0768EC71E0CE010D960E9422076DECFE
:1013500071E0CE0107960E94220769EE71E0CE018E
:1013600001960E9422079E01235F3F4FAE01495F15
:101370005F4FBE016F5F7F4F83E090E00E944B089C
:10138000CE0101960E945D07CE0107960E945D077F
:10139000CE010D960E945D076EEE71E0CE01439680
:1013A0000E9422076AEF71E0CE010D960E9422078B
:1013B00062E072E0CE0107960E94220780E00E9460
:1013C000BF0588E690E00E9498018091FF02882383
:1013D00099F06091530580915005909151050E94BC
:1013E00091012AE045E650E060E070E08091500510
:1013F000909151050E942605BE01695F7F4FCE0185
:1014000001960E941907CE0101960E94C601CE01E5
:1014100001960E945D07BE01635F7F4FCE0101967A
:101420000E941907CE0101960E94C601CE010196C5
:101430000E945D07BE016D5E7F4FCE0101960E9446
:101440001907CE0101960E94C601CE0101960E94A5
:101450005D070E940805CE0107960E945D07CE0138
:101460000D960E945D07CE0143960E945D076CE0D9
:1014700072E0CE0101960E942207BE016F5F7F4F8E
:1014800081E090E00E946507CE0101960E945D0711
:1014900063E172E0CE0101960E942207BE016F5FF8
:1014A0007F4F82E090E00E946507CE0101960E9486
:1014B0005D076AEB71E080E00E94EF05BACE6BE158
:1014C00072E0C8010E94DF11892B49F481E080930A
:1014D0005A0280E00E94BF058EE690E07CCE6FE568
:1014E00071E0C8010E94DF11892B09F0A4CE10928F
:1014F0005A02A1CE1F920F920FB60F9211242F9372
:101500003F934F935F936F937F938F939F93AF938B
:10151000BF93EF93FF9382E692E00E946702FF91F0
:10152000EF91BF91AF919F918F917F916F915F915B
:101530004F913F912F910F900FBE0F901F901895D4
:101540001F920F920FB60F9211242F938F939F9398
:10155000EF93FF93E0917202F09173028081E0912A
:101560007802F091790282FD1BC0908180917B020C
:101570008F5F8F7320917C02821741F0E0917B0294
:10158000F0E0EE59FD4F958F80937B02FF91EF9134
:101590009F918F912F910F900FBE0F901F901895D4
:1015A0008081F4CF1F920F920FB60F9211242F93C8
:1015B0003F938F939F93AF93BF93809156029091E7
:1015C0005702A0915802B09159023091460223E08F
:1015D000230F2D3758F50196A11DB11D209346020A
:1015E0008093560290935702A0935802B0935902E9
:1015F0008091470290914802A0914902B0914A021D
:101600000196A11DB11D8093470290934802A093BB
:101610004902B0934A02BF91AF919F918F913F9140
:101620002F910F900FBE0F901F90189526E8230F53
:101630000296A11DB11DD2CF1092650210926402D4
:1016400088EE93E0A0E0B0E080936602909367029A
:10165000A0936802B093690288E391E090936302DB
:101660008093620285EC90E090936F0280936E020B
:1016700084EC90E0909371028093700280EC90E093
:10168000909373028093720281EC90E090937502C4
:101690008093740282EC90E09093770280937602BC
:1016A00086EC90E0909379028093780210927B020E
:1016B00010927C0210927D0210927E0210925605CA
:1016C0001092550582E692E0909351058093500563
:1016D000109207038CE2809353058BE380935205AD
:1016E0008FE28093540580E4809302038FE380931C
:1016F00003031092010310924C0510924B051092B7
:101700004E0510924D0581E080934905E7E5F5E02F
:101710001192119285E0EB3BF807D1F71092060386
:1017200068E471E08CE592E00C942207CF93DF939C
:10173000CDB7DEB762970FB6F894DEBF0FBECDBF50
:10174000789484B5826084BD84B5816084BD85B59C
:10175000826085BD85B5816085BD80916E008160A8
:1017600080936E001092810080918100826080934E
:101770008100809181008160809381008091800050
:101780008160809380008091B10084608093B1007B
:101790008091B00081608093B00080917A00846075
:1017A00080937A0080917A00826080937A008091A1
:1017B0007A00816080937A0080917A0080688093BB
:1017C0007A001092C10081E090E0909352028093E1
:1017D0005102E7E04E2E512CF6E06F2E712CA8E05E
:1017E000EA2EF12CBAE0CB2ED12C19E0A12EB12C8F
:1017F0000CE0802E912C0091510210915202033086
:1018000011050CF4FAC162E0809100010E94760398
:1018100062E0809101010E94760362E080910701FD
:101820000E94760362E0809108010E947603E091B5
:101830007202F091730282E08083E0916E02F09177
:101840006F021082E0917002F091710280E180835A
:1018500010927A02E0917602F091770286E080831E
:10186000E0917402F0917502808180618083E09143
:101870007402F0917502808188608083E091740227
:10188000F0917502808180688083E0917402F0910C
:10189000750280818F7D80838091FF02811109C054
:1018A00083E00E94BF0589E891E00E9498010E94B0
:1018B000080583E096E0909356058093550526EA47
:1018C00038E0309358052093570528E036E03093F0
:1018D0005C0520935B0590935E0580935D058AED22
:1018E00097E0909366058093650561E08BE00E9428
:1018F000760380910E0190910F010E94A70362E090
:1019000081E10E94760362E082E10E94760362E058
:1019100083E10E9476036624639477247394809114
:101920005A02882309F4C8C060E0C62E61E0D62EB2
:10193000F12CE12C77E0B72ED60111968C910E9404
:101940001F038C01F60180810E941F03BE9CD00101
:10195000BF9CB00D1124A050BF4F1696EC91169766
:10196000EF70000F111F082B24E0E29FF0011124FB
:10197000EA5EFE4FE00FF11D808116968C9316975C
:1019800016968C918073803109F097C165E272E000
:10199000E114F10409F499C16DE272E088E00E945B
:1019A000EF0583E10E941F03892BA1F480910E01B2
:1019B00090910F018F3F91053CF40F9690930F018A
:1019C00080930E010E94A70365E070E080E090E044
:1019D0000E9424046AE070E080E090E00E94240409
:1019E00087E0C80ED11CEA94EF2809F062C10EE22C
:1019F00011E033E5E32E32E0F32EF80181810E94FD
:101A00001F03D7012C912817190609F44BC0F801C0
:101A1000D080211173C16C9268E471E0CE010D9603
:101A20000E9422076D2DCE010D960E94B20641E064
:101A300050E063E472E0CE010D960E945B0670E018
:101A400060E0CE010D960E948206BE01635F7F4F6B
:101A5000CE0107960E9419078091FF02811114C0E0
:101A600088E00E94BF05BE01695F7F4FCE010196ED
:101A70000E941907CE0101960E94C601CE0101966F
:101A80000E945D070E940805CE0107960E945D072F
:101A9000CE010D960E945D0769E170E080E090E064
:101AA0000E9424040E5F1F4FBFEFEB1AFB0AE1E018
:101AB00004331E0709F0A1CF80910603811186C16E
:101AC0008091500590915105DC01ED91FC910084CD
:101AD000F185E02D0995892B09F478C18091500595
:101AE00090915105DC01ED91FC910084F185E02D90
:101AF0000995C12C22E0D22E8115924064F4809188
:101B0000500590915105DC01ED91FC910084F18527
:101B1000E02D09956C01009150051091510598E454
:101B2000A92E93E0B92E4501F12CE12CCE14DF044F
:101B300009F0FBC010E000E0C016D10609F4BCCFEC
:101B4000D5019D915D011092480530915405209179
:101B5000050390930503931304C0921302C01092DF
:101B6000050380910103E82FF0E040915205E15018
:101B7000FD4F941312C1321709F40FC11186882347
:101B800021F0709248051092050310920103109203
:101B90004C0510924B0510924E0510924D05709217
:101BA0004905F0904805B1E0FB120DC10E942A01E1
:101BB000882309F4FCC0F0924905F0924A0580910F
:101BC0004B0590914C050E94FE0E809300038233DA
:101BD00008F0F2C020914A05222309F4EDC0FC016F
:101BE000FF27EE0FFF1FE95AFA4F0190F081E02D19
:101BF000309709F4E1C00995E6C00130110509F0FC
:101C000048C0D0925002C0924F02B0924E02A092B1
:101C10004D0290924C0280924B0261E080914F0203
:101C20000E94760320904D0261E0822D0E9476038F
:101C300030904B0261E0832D0E94760361E0822D9B
:101C40000E94480360E0832D0E94480360E08FE01B
:101C50000E94560461E08CE00E9456046FEF89E018
:101C60000E94560461E08AE00E94560467E08BE01F
:101C70000E9456046FE081E00E9456046FE082E00B
:101C80000E9456040F5F1F4F10935202009351029F
:101C9000B2CD0230110509F65092500240924F0227
:101CA00070924E0260924D02F0924C02E0924B0212
:101CB000B4CFEE24E394F12C3FCE803209F090CEE5
:101CC000E114F10431F463E372E088E00E94EF056F
:101CD0007BCE6CE372E088E00E94EF0583E10E9416
:101CE0001F03892B09F070CE80910E0190910F0196
:101CF000181619060CF068CE0F9760CE1C9268E497
:101D000071E0CE010D960E9422076D2DCE010D9639
:101D10000E94B20641E050E063E472E0CE010D960D
:101D20000E945B0661E070E08CCE2FB7F894809142
:101D3000560290915702A0915802B09159022FBFBC
:101D4000F80180879187A287B387D801ED91FC9134
:101D50000284F385E02DC801099597FF44C02FB791
:101D6000F8948091560290915702A0915802B09138
:101D700059022FBFF8014085518562857385841B08
:101D8000950BA60BB70B448155816681778184172B
:101D90009507A607B707C8F2CDCE91878F5F8093CE
:101DA000010390910303891708F0EFCEFACE109249
:101DB0004A0590E080E009CFE0915505F091560585
:101DC000309709F018CF0F5F1F4FB6CE80E090E03C
:101DD000892B09F4A4CD0E945302882309F49BCDDA
:101DE0000E94000098CDF40181934F01FFEFEF1A9C
:101DF000FF0A9CCE8CE592E00C945D07FC018827DD
:101E00009927E89421912032E9F3293010F02E30FF
:101E1000C8F32B3241F02D3239F4689404C00E948B
:101E2000630F820F911D219120532A30C0F31EF4BD
:101E3000909581959F4F08951F93FC0199278827BE
:101E4000BC01E89411911032E9F3193010F01E3002
:101E5000C8F31B3251F01D3249F4689406C00E9449
:101E60004E0F610F711D811D911D119110531A307C
:101E7000B0F33EF490958095709561957F4F8F4FAC
:101E80009F4F1F910895BB274A3031F4992322F4C4
:101E9000BDE2909581959F4F0C946C0F592F482F60
:101EA000372F262F660F771F881F991F660F771F02
:101EB000881F991F620F731F841F951F660F771F5E
:101EC000881F991F08957AE0979F902D879F802DF6
:101ED000910D11240895BB27FB015527AA27880FD0
:101EE000991FAA1FA41710F0A41B83955051B9F78E
:101EF000A05DAA3308F0A95DA193009779F7B1110D
:101F0000B1931192CB010C94850FDC01FC01672F7A
:101F100071917723E1F7329704C07C916D937083C0
:101F20006291AE17BF07C8F308952F923F924F9268
:101F30005F926F927F928F929F92AF92BF92CF9259
:101F4000DF92EF92FF920F931F93CF93DF93CDB762
:101F5000DEB7CA1BDB0B0FB6F894DEBF0FBECDBFDA
:101F600009942A88398848885F846E847D848C84AB
:101F70009B84AA84B984C884DF80EE80FD800C81B4
:101F80001B81AA81B981CE0FD11D0FB6F894DEBF97
:101F90000FBECDBFED010895A1E21A2EAA1BBB1BF7
:101FA000FD010DC0AA1FBB1FEE1FFF1FA217B30725
:101FB000E407F50720F0A21BB30BE40BF50B661F3B
:101FC000771F881F991F1A9469F7609570958095FF
:101FD00090959B01AC01BD01CF010895EE0FFF1F4D
:101FE0000590F491E02D09940F931F93CF93DF9305
:101FF0008230910510F482E090E0E091BD05F0910F
:10200000BE0530E020E0B0E0A0E0309799F4211563
:10201000310509F44AC0281B390B24303105D8F5A5
:102020008A819B816115710589F1FB01938382830C
:10203000FE0111C040815181028113814817590767
:10204000E0F04817590799F4109761F012960C9335
:10205000129713961C933296CF01DF91CF911F9167
:102060000F9108950093BD051093BE05F4CF21157F
:10207000310551F04217530738F0A901DB019A01ED
:10208000BD01DF01F801C1CFEF01F9CF9093BE058B
:102090008093BD05CDCFFE01E20FF31F8193919395
:1020A0002250310939832883D7CF2091BB05309145
:1020B000BC05232B41F42091120130911301309380
:1020C000BC052093BB052091100130911101211511
:1020D000310541F42DB73EB74091140150911501DF
:1020E000241B350BE091BB05F091BC05E217F3070B
:1020F000A0F42E1B3F0B2817390778F0AC014E5F78
:102100005F4F2417350748F04E0F5F1F5093BC05F3
:102110004093BB05819391939FCFF0E0E0E09CCF8B
:10212000CF93DF930097E9F0FC013297138212827C
:10213000A091BD05B091BE05ED0130E020E0109703
:10214000A1F420813181820F931F2091BB05309132
:10215000BC052817390709F061C0F093BC05E0936E
:10216000BB05DF91CF910895EA01CE17DF07E8F5AF
:102170004A815B819E0141155105B1F7E901FB835D
:10218000EA8349915991C40FD51FEC17FD0761F4FB
:10219000808191810296840F951FE901998388833C
:1021A000828193819B838A83F0E0E0E012968D9197
:1021B0009C9113970097B9F52D913C911197CD0102
:1021C0000296820F931F2091BB053091BC05281702
:1021D000390739F6309751F51092BE051092BD05BA
:1021E000B093BC05A093BB05BCCFD383C283408111
:1021F0005181840F951FC817D90761F44E5F5F4F57
:1022000088819981480F591F518340838A819B811E
:10221000938382832115310509F0B0CFF093BE0579
:10222000E093BD059ECFFD01DC01C0CF1382128279
:10223000D7CFB0E0A0E0EFE1F1E10C94970F8C0173
:10224000009751F4CB010E94F40F8C01C801CDB767
:10225000DEB7E0E10C94B30FFC01E60FF71F9C0121
:1022600022503109E217F30708F49DC0D901CD913E
:10227000DC911197C617D70798F0C530D10530F318
:10228000CE0104978617970708F3C61BD70B229732
:10229000C193D1936D937C93CF010E949010D6CFC0
:1022A0005B01AC1ABD0A4C018C0E9D1EA091BD05B0
:1022B000B091BE05512C412CF12CE12C109731F539
:1022C0008091BB059091BC058815990509F05CC00B
:1022D0004616570608F058C08091100190911101E0
:1022E000009741F48DB79EB74091140150911501AC
:1022F000841B950BE817F90708F055C0F093BC054F
:10230000E093BB05F90171836083A0CF8D919C910F
:10231000119712966C90129713967C901397A815AC
:10232000B90559F56C0142E0C40ED11CCA14DB0496
:1023300020F1AC014A195B09DA011296159780F079
:102340006282738251834083D9016D937C93E1143F
:10235000F10471F0D7011396FC93EE93129776CFA8
:1023600022968C0F9D1FF90191838083F301EFCF9B
:10237000F093BE05E093BD0569CF4816590608F4F1
:102380002C017D01D3019ACFCB010E94F40F7C0177
:10239000009749F0AE01B8010E94D611C8010E9411
:1023A0009010870153CF10E000E050CFFB01DC011B
:1023B00002C001900D9241505040D8F70895FB01A2
:1023C000DC018D91019080190110D9F3990B0895CA
:1023D000FB01DC0101900D920020E1F7089510E06F
:1023E000CEEDD0E004C0FE010E94EE0F2196CF3D5D
:0823F000D107C9F7F894FFCFF3
:1023F80002030100FFFF00040564009CFF00FF00CA
:102408000000BF0580000302010013000100230241
:102418000000030504000303042003050310011151
:1024280002120313000000008902E9011602D60215
:102438004702250239020D0A00554E4B4E4F574EA2
:1024480020434F4D4D414E44005354415254004592
:102458004E4400535041445F444953504C41590045
:102468004C454E4754483D00524F57533D31004E5E
:102478004F50414444494E473D3100574944544820
:102488003D313333004845494748543D34300046D0
:102498004F4E5453495A453D343000494E49540033
:1024A80050494E4700504F4E4700434F4E4649470C
:1024B800004F5054494F4E00535041445F505553BC
:1024C80048425554544F4E00454E434F4445525F81
:1024D80050555348005446520054455354005350E5
:1024E80041445F444F55424C455F454E434F444538
:1024F8005200454E434F4445525F310041435449D1
:102508005645005354414E444259005343414E539B
:1025180054415445003130312C31303000313031A4
:102528002C31003130312C2D313030003130312C0C
:062538002D31002C000013
:00000001FF
