:100000000C9460010C9488010C9488010C94880174
:100010000C9488010C9488010C9488010C9488013C
:100020000C9488010C9488010C9488010C9488012C
:100030000C9488010C9488010C9488010C9488011C
:100040000C942C0C0C9488010C94FA0B0C94D40B8B
:100050000C9488010C9488010C9488010C948801FC
:100060000C9488010C948801494E50555400535407
:100070004154455343414E004144442C31332C56A6
:1000800049525455414C5F504F5745522C55382CCE
:1000900052572C5669727475616C20506F77657277
:1000A0002C204E41562070616E656C20766972740A
:1000B00075616C20706F7765722030206F7220310F
:1000C0002C504552534953543D31004144442C3146
:1000D000322C4241434B4C494748545F4252492CD1
:1000E00055382C52572C4261636B6C6967687420D9
:1000F0004272696768746E6573732C204E41562096
:1001000070616E656C206261636B6C6967687420F6
:100110006272696768746E6573732066726F6D20B2
:100120003020746F203235352C504552534953548A
:100130003D31004144442C31312C444953504C4111
:10014000595F4252492C55382C52572C44697370D0
:100150006C6179204272696768746E6573732C4EA6
:1001600041562064696769747320627269676874B4
:100170006E6573732066726F6D203020746F20314E
:10018000352C504552534953543D31004E4F5F4436
:100190004953504C41595F434C4541523D30005505
:1001A000495F545950453D300050414745535550E3
:1001B000504F52543D3100495347454E45524943F3
:1001C0003D31005049443D43465420373337204E9B
:1001D00041562050414E454C00415554484F523DE8
:1001E0006439323337393433663735393638643821
:1001F00031653132616666313261383561323430B1
:1002000000330043465420373337204E41562050A8
:10021000414E454C0036356632393330362D653126
:1002200064372D346135352D616664392D32316482
:10023000383134363763313030005350414400494F
:100240004E5055540000000000240027002A0000F2
:10025000000000250028002B0000000000230026DD
:10026000002900040404040404040402020202023B
:10027000020303030303030102040810204080016A
:100280000204081020010204081020415454414384
:1002900048494E472043414C4C4241434B53210077
:1002A0004F55545055540000000008000201000052
:1002B000030407000000000000000000760CC710D7
:1002C00011241FBECFEFD8E0DEBFCDBF25E0A8E4EC
:1002D000B2E001C01D92A13CB207E1F712E0A0E03C
:1002E000B1E0E2E9F7E202C005900D92A834B1074F
:1002F000D9F711E0CFE5D1E004C02197FE010E94BB
:10030000BB11CE35D107C9F70E94F00C0C94BC1379
:100310000C940000AC011092060390915605809158
:100320005505FA01BF01641B750B2091060330814E
:1003300030930603931304C0921302C01092060375
:100340003081311104C0921721F0CB010895381784
:10035000D1F33196E7CF0F931F93CF93DF93809123
:100360004A05882309F446C0D0E0C0E0813029F472
:1003700082E080934A05CAE0D3E080914B05882350
:1003800041F1209721F4C0914F05D09150058E0185
:10039000CE010E948A01892B29F42196F8018081DF
:1003A0008111F5CFF8018081882309F1C8010E94ED
:1003B0008A01F801E80FF91F8081882311F010826B
:1003C0003196F0935005E0934F0510934E0500933E
:1003D0004D0580914D0590914E05892B59F081E096
:1003E00080934B05DF91CF911F910F91089510E0FD
:1003F00000E0EBCF80E0F6CF209162023091630203
:100400008217930738F420915E0230915F02211524
:10041000310529F410925D028DE592E00895820F76
:10042000931F08950895DC01ED91FC910190F081F6
:10043000E02D0994EF92FF920F931F93CF93DF93D8
:10044000209101032223E9F08C01609155058091F0
:100450005205909153050E941302E0905205F090CE
:100460005305E801FE016491662359F0D701ED912F
:10047000FC910190F081E02DC70109952196892B0F
:1004800089F7DF91CF911F910F91FF90EF90089521
:10049000CF93DF93209101032223D1F0EC016091EF
:1004A000550580915205909153050E941302809149
:1004B0005205909153054C815D8168817981DC0101
:1004C000ED91FC910280F381E02DDF91CF910994B1
:1004D000DF91CF910895AF92BF92CF92DF92EF92CA
:1004E000FF920F931F93CF93DF936C017B018B01DE
:1004F000040F151FEB015E01AE18BF08C017D1072E
:1005000059F06991D601ED91FC910190F081E02DB7
:10051000C6010995892B79F7C501DF91CF911F910C
:100520000F91FF90EF90DF90CF90BF90AF90089524
:10053000FC01538D448D252F30E0842F90E0821BE9
:10054000930B541710F0CF96089501970895FC016E
:10055000918D828D981761F0A28DAE0FBF2FB11DC6
:100560005D968C91928D9F5F9F73928F90E008951E
:100570008FEF9FEF0895FC01918D828D981731F0D8
:10058000828DE80FF11D858D90E008958FEF9FEF2C
:100590000895FC01918D228D892F90E0805C9F4F02
:1005A000821B91098F739927089584E692E00E9437
:1005B000C90221E0892B09F420E0822F089580E010
:1005C00090E0892B29F00E94D50281110C94000043
:1005D0000895FC01A48DA80FB92FB11DA35ABF4FD8
:1005E0002C91848D90E001968F739927848FA68932
:1005F000B7892C93A089B1898C91837080648C9386
:10060000938D848D981306C00288F389E02D808134
:100610008F7D80830895EF92FF920F931F93CF9366
:10062000DF93EC0181E0888F9B8D8C8D98131AC02D
:10063000E889F989808185FF15C09FB7F894EE8914
:10064000FF896083E889F989808183708064808371
:100650009FBF81E090E0DF91CF911F910F91FF90BC
:10066000EF900895F62E0B8D10E00F5F1F4F0F7364
:100670001127E02E8C8D8E110CC00FB607FCFACF1F
:10068000E889F989808185FFF5CFCE010E94E902D2
:10069000F1CFEB8DEC0FFD2FF11DE35AFF4FF082F0
:1006A0009FB7F8940B8FEA89FB8980818062CFCF56
:1006B000CF93DF93EC01888D8823B9F0AA89BB8999
:1006C000E889F9898C9185FD03C0808186FD0DC084
:1006D0000FB607FCF7CF8C9185FFF2CF808185FFA5
:1006E000EDCFCE010E94E902E9CFDF91CF910895CD
:1006F000833081F028F4813099F08230A9F0089598
:100700008730A9F08830C9F08430B1F4809180003E
:100710008F7D03C0809180008F7780938000089543
:1007200084B58F7784BD089584B58F7DFBCF80918C
:10073000B0008F778093B00008958091B0008F7DD6
:10074000F9CFCF93DF93282F30E0F901E955FD4F22
:100750008491F901E958FD4FD491F901ED59FD4F0C
:10076000C491CC23A1F081110E947803EC2FF0E01A
:10077000EE0FFF1FE75AFD4FA591B491EC91ED23C9
:1007800081E090E009F480E0DF91CF91089580E06E
:1007900090E0FACF1F93CF93DF93282F30E0F90139
:1007A000E955FD4F8491F901E958FD4FD491F901C4
:1007B000ED59FD4FC491CC23A9F0162F81110E9451
:1007C0007803EC2FF0E0EE0FFF1FE15BFD4FA591EA
:1007D000B4918FB7F894EC91111108C0D095DE2335
:1007E000DC938FBFDF91CF911F910895DE2BF8CF5F
:1007F000CF93DF9390E0FC01E958FD4F24918D5990
:100800009D4FFC0184918823D1F090E0880F991FBF
:10081000FC01EB5BFD4FA591B491FC01E15BFD4F49
:10082000C591D491623071F49FB7F8943C91822FB6
:10083000809583238C93E8812E2B28839FBFDF91A3
:10084000CF9108958FB7F894EC912E2B2C938FBFF6
:10085000F6CFCF93DF93EC0161E08BE00E94F803C9
:10086000209731F460E08BE0DF91CF910C94CA03C4
:10087000CF3FD10511F461E0F6CFE2EBF2E0E49175
:10088000E33029F140F4E130B1F0E230D9F0C03882
:10089000D1058CF7E7CFE73021F1E83051F1E430B2
:1008A000B1F780918000806280938000D0938B00AC
:1008B000C0938A0004C084B5806884BDC7BDDF9141
:1008C000CF91089584B5806284BDC8BDF8CF809172
:1008D0008000806880938000D0938900C093880056
:1008E000EECF8091B00080688093B000C093B300D9
:1008F000E6CF8091B00080628093B000C093B400D6
:10090000DECF3FB7F8948091490290914A02A091BE
:100910004B02B0914C0226B5A89B05C02F3F19F0A1
:100920000196A11DB11D3FBFBA2FA92F982F88276F
:10093000BC01CD01620F711D811D911D42E0660F4A
:10094000771F881F991F4A95D1F708958F929F921C
:10095000AF92BF92CF92DF92EF92FF924B015C0178
:100960000E9481046B017C010E9481046C197D0945
:100970008E099F09683E734081059105A8F321E027
:10098000821A9108A108B10888EEC80E83E0D81E2B
:10099000E11CF11C81149104A104B10429F7FF901A
:1009A000EF90DF90CF90BF90AF909F908F90089581
:1009B0009F92AF92BF92CF92DF92EF92FF920F93EE
:1009C0001F93CF93DF93A82EC62E9090510260E024
:1009D000892D0E94CA0308E010E030E8E32EF12CD4
:1009E000B12CD0915302C5018E219F2161E0892B4A
:1009F00009F460E08D2F0E94CA03C0914F0261E0AC
:100A00008C2F0E94CA0360E08C2F0E94CA03F594C9
:100A1000E7940150110929F708E010E090E8E92E69
:100A2000F12CD12CC6018E219F2161E0892B09F484
:100A300060E08D2F0E94CA0361E08C2F0E94CA03E0
:100A400060E08C2F0E94CA03F594E79401501109CD
:100A500049F761E0892DDF91CF911F910F91FF90B0
:100A6000EF90DF90CF90BF90AF909F900C94CA030F
:100A700090E080E00E94FC01FC01608186E00E9421
:100A8000D80481E090E00E94FC01FC01608185E0D7
:100A90000E94D80482E090E00E94FC01FC01608189
:100AA000605884E00E94D80483E090E00E94FC013A
:100AB000FC01608183E00E94D80484E090E00E9401
:100AC000FC01FC01608182E00C94D8040E94AB011F
:100AD000882359F081E080934B0580934C058091E9
:100AE0004D0590914E050C94E91010924C0560E074
:100AF00070E0CB010895CF92DF92EF92FF920E94B7
:100B000066056B017C018FEFC816D104E104F10486
:100B100009F038F4C6010E942904D0920F01C09256
:100B20000E01FF90EF90DF90CF900895FB010190B0
:100B30000020E9F73197AF01461B570BDC01ED911F
:100B4000FC910280F381E02D0994809101038823B8
:100B5000A1F06091540580915205909153050E9437
:100B6000130280910903882341F068E471E08091C9
:100B70005205909153050E94960510920803109219
:100B8000010380E008958F929F92AF92BF92EF92FF
:100B9000FF920F931F93CF93DF93CDB7DEB7A1974B
:100BA0000FB6F894DEBF0FBECDBF7C01FA01CB01BA
:100BB00019A2223008F42AE08E010F5D1F4F822E09
:100BC000912CB12CA12CBF01A50194010E94991177
:100BD000F901CA016A300CF5605DD8016E938D0190
:100BE000232B242B252B79F790E080E0109721F020
:100BF000BD01C7010E949605A1960FB6F894DEBF0D
:100C00000FBECDBFDF91CF911F910F91FF90EF905D
:100C1000BF90AF909F908F900895695CDECF9091C8
:100C20000103911110C091E0909301039093080388
:100C3000482F50E070E060E02AE0809152059091EA
:100C400053050C94C3050895CF93DF93909101034E
:100C500091110AC0EB010E940F06CE010E941A02F8
:100C6000DF91CF910C94A50580E0DF91CF9108959D
:100C7000CF92DF92EF92FF92CF93DF932091010307
:100C8000222359F16C016091550580915205909194
:100C900053050E941302C0915205D09153050D2CAB
:100CA000000CEE08FF082AE0B701A601F7FE0CC011
:100CB0006DE2CE010E94130244275527BA014C1958
:100CC0005D096E097F092AE0CE01DF91CF91FF9087
:100CD000EF90DF90CF900C94C305DF91CF91FF9000
:100CE000EF90DF90CF900895CF92DF92EF92FF9236
:100CF0000E9466056B017C0180E1C816D104E10405
:100D0000F10480F4D0921101C0921001809101038E
:100D1000811108C083E00E940F06C6010E943806B8
:100D20000E94A50587E090E09093540280935302BF
:100D300086E090E0909352028093510288E090E028
:100D40009093500280934F02F09010016F2D8AE033
:100D50000E94D8048AE090E090935402809353025A
:100D600089E090E090935202809351028CE090E0F1
:100D70009093500280934F026F2D8AE0FF90EF9086
:100D8000DF90CF900C94D804CF93DF932091010390
:100D9000222391F0EC0160915505809152059091CC
:100DA00053050E941302BE01809152059091530594
:100DB000DF91CF910C949605DF91CF910895CF9359
:100DC000DF939091010391110AC0EB010E940F067D
:100DD000CE010E94C406DF91CF910C94A50580E05E
:100DE000DF91CF9108956BE471E083E00C94DF060E
:100DF000CF93DF930E94AB018823B1F081E0809311
:100E00004B0580934C05C0914D05D0914E056BE587
:100E100071E0CE010E94AC13892B59F481E08093DC
:100E20005C02DF91CF91089510924C05D0E0C0E0B4
:100E3000EECF61E671E0CE010E94AC13892B89F7F9
:100E400010925C02EECF0F931F93CF93DF93EC01D0
:100E500088819981009759F02A813B8126173707AD
:100E600030F081E0DF91CF911F910F9108958B01B8
:100E70006F5F7F4F0E94E612009759F09983888335
:100E80001B830A832C813D81232B59F7FC0110829F
:100E9000E8CF80E0E7CFEF92FF920F931F93CF93BD
:100EA000DF9341155105B1F07B01EC010C811D81EF
:100EB000040F151FB8010E942307882361F02881C1
:100EC00039818C819D81B701820F931F0E94B513D8
:100ED0001D830C8381E0DF91CF911F910F91FF90D3
:100EE000EF900895EF92FF920F931F93CF93DF93AC
:100EF000CDB7DEB728970FB6F894DEBF0FBECDBFD3
:100F00007C01CB014AE08E010F5F1F4FB8010E94A8
:100F10001011F80101900020E9F73197AF01401B53
:100F2000510BB801C7010E944B0728960FB6F894E1
:100F3000DEBF0FBECDBFDF91CF911F910F91FF900C
:100F4000EF900895EF92FF920F931F93CF93DF934B
:100F500000D000D0CDB7DEB77C01862F4AE08E01ED
:100F60000F5F1F4FB80190E00E941011F80101902F
:100F70000020E9F73197AF01401B510BB801C701C1
:100F80000E944B070F900F900F900F90DF91CF9121
:100F90001F910F91FF90EF900895CF93DF93EC0195
:100FA00088819981009711F00E945D121982188240
:100FB0001D821C821B821A82DF91CF910895EF92CD
:100FC000FF920F931F93CF93DF93EC018617970740
:100FD00081F0FB01008111810115110539F0E480D8
:100FE000F580B7010E94230781110BC0CE010E943A
:100FF000CD07CE01DF91CF911F910F91FF90EF9020
:101000000895FD82EC82B801888199810E94B51310
:10101000F0CFFC0111821082138212821582148299
:101020000C94DF07EF92FF920F931F93CF93DF9300
:10103000EC01198218821B821A821D821C826115A2
:10104000710521F18B01FB0101900020E9F7319737
:101050007F01E61AF70AB7010E942307811109C030
:10106000CE01DF91CF911F910F91FF90EF900C94E3
:10107000CD07FD82EC82B80188819981DF91CF9103
:101080001F910F91FF90EF900C94B513DF91CF91CA
:101090001F910F91FF90EF900895FC018081918145
:1010A000009711F00C945D120895EF92FF920F9348
:1010B0001F93CF93DF93CDB7DEB72C970FB6F8947D
:1010C000DEBF0FBECDBF7C018B0180E00E940F060A
:1010D00080EA92E00E941A02C7010E943806B80115
:1010E000CE0101960E940908CE0101960E94480295
:1010F000CE0101960E944D088AE691E00E94C40646
:1011000085E691E00E94C40662E771E0CE01079691
:101110000E94120866E070E0CE0107960E947207F6
:10112000BE01695F7F4FCE0101960E940908CE0182
:1011300001960E944802CE0101960E944D088AE75E
:1011400091E00E94C40681E891E00E94C4068DE807
:1011500091E00E94C40687E991E00E94C40681EAFA
:1011600091E00E94C4060E94A505CE0107960E9448
:101170004D082C960FB6F894DEBF0FBECDBFDF91A1
:10118000CF911F910F91FF90EF900895CF92DF9232
:10119000EF92FF92CF93DF9300D000D000D0CDB775
:1011A000DEB70E9466056B017C010E9466050E9405
:1011B00066050E94AB01882309F44EC081E080934C
:1011C0004B0580934C0560914D0570914E05CE0105
:1011D00001960E94120881E0C816D104E104F104CE
:1011E00009F05DC08AE090E090935402809353022E
:1011F00089E090E090935202809351028CE090E05D
:101200009093500280934F028D819E81892B49F1EA
:1012100062E472E089819A810E94AC13892B09F5FE
:1012200061E089E00E94CA0360E08CE00E94CA038A
:1012300060E08FE00E94D80460E08CE00E94D80457
:101240006FEF89E00E94D804609110018AE00E944B
:10125000D80467E08BE007C010924C0570E060E0B6
:10126000B6CF61E08CE00E94D804BE016F5F7F4F73
:101270008EE592E00E94DF070E943805CE010196BC
:101280000E944D0826960FB6F894DEBF0FBECDBF64
:10129000DF91CF91FF90EF90DF90CF90089582E0A3
:1012A000C816D104E104F10449F787E090E0909377
:1012B00054028093530286E090E090935202809310
:1012C000510288E090E09093500280934F028D810C
:1012D0009E81892B31F262E472E089819A810E94B9
:1012E000AC13892B09F0BDCF61E086E00E94CA03F0
:1012F00060E088E09BCFAF92BF92CF92DF92EF92F7
:10130000FF920F931F93CF93DF9300D000D000D0B4
:10131000CDB7DEB75C016B017A01890180E00E94E4
:101320000F068FE392E00E941A02C5010E94380660
:10133000B601CE0101960E940908CE0101960E94D5
:101340004802CE0101960E944D08B701CE010196D8
:101350000E940908CE0101960E944802CE01019622
:101360000E944D08B801CE0101960E940908CE01E5
:1013700001960E944802CE0101960E944D080E94EB
:10138000A50526960FB6F894DEBF0FBECDBFDF9140
:10139000CF911F910F91FF90EF90DF90CF90BF9072
:1013A000AF900895CF92DF92EF92FF920F931F9329
:1013B000CF93DF93CDB7DEB768970FB6F894DEBF53
:1013C0000FBECDBF0E94AB01882381F181E08093E5
:1013D0004B0580934C0500914D0510914E056DEA2B
:1013E00071E0C8010E94AC13892B29F580E00E94AE
:1013F0000F068AE392E00E941A0285E192E00E94C1
:101400001A0283E092E00E941A0282E090E00E94B9
:10141000380681E092E00E941A0289ED91E00E9474
:101420001A0283EC91E00E941A023CC010924C0513
:1014300010E000E0D4CF62EB71E0C8010E94AC1371
:10144000892B09F040C080E00E940F0687EB91E0F5
:101450000E94C4060E9466056B017C018091010315
:10146000882301F1609155058091520590915305B3
:101470000E94130200915205109153052AE0B70112
:10148000A601F7FE0CC06DE2C8010E9413024427BA
:101490005527BA014C195D096E097F092AE0C80178
:1014A0000E94C3050E94A50568960FB6F894DEBF9A
:1014B0000FBECDBFDF91CF911F910F91FF90EF90A5
:1014C000DF90CF9008956CEB71E0C8010E94AC13DF
:1014D000892B09F04EC180E00E940F0683EC91E059
:1014E0000E94C40687EB91E00E941A0289EA91E00B
:1014F0000E941A028FE991E00E941A028CE891E0A2
:101500000E941A020E94A50563E371E081E00E9437
:10151000240662E370E080E090E00E94A6046BEC99
:1015200070E081E00E94240662E370E080E090E0D9
:101530000E94A60468E770E081E00E94240662E34E
:1015400070E080E090E00E94A6046AEC71E0CE01B9
:101550000D960E9412086FEC71E0CE0107960E9472
:1015600012086AED71E0CE0101960E9412089E01F8
:10157000235F3F4FAE01495F5F4FBE016F5F7F4FFB
:1015800081E090E00E947B09CE0101960E944D0807
:10159000CE0107960E944D08CE010D960E944D087F
:1015A0006AEC71E0CE010D960E9412086FEC71E0BA
:1015B000CE0107960E94120867EE71E0CE010196F7
:1015C0000E9412089E01235F3F4FAE01495F5F4FAB
:1015D000BE016F5F7F4F82E090E00E947B09CE01E9
:1015E00001960E944D08CE0107960E944D08CE013B
:1015F0000D960E944D086AEC71E0CE010D960E9496
:1016000012086FEC71E0CE0107960E9412086BEE93
:1016100071E0CE0101960E9412089E01235F3F4FA8
:10162000AE01495F5F4FBE016F5F7F4F83E090E087
:101630000E947B09CE0101960E944D08CE010796BB
:101640000E944D08CE010D960E944D0860EF71E09A
:10165000CE0143960E9412086CEF71E0CE010D9608
:101660000E94120864E072E0CE0107960E94120800
:1016700080E00E940F0688E690E00E941A028091A6
:101680000103882399F0609155058091520590914E
:1016900053050E9413022AE045E650E060E070E046
:1016A00080915205909153050E94C305BE01695F68
:1016B0007F4FCE0101960E940908CE0101960E943B
:1016C0004802CE0101960E944D08BE01635F7F4F24
:1016D000CE0101960E940908CE0101960E9448029F
:1016E000CE0101960E944D08BE016D5E7F4FCE0176
:1016F00001960E940908CE0101960E944802CE017F
:1017000001960E944D080E94A505CE0107960E94F1
:101710004D08CE010D960E944D08CE0143960E94C1
:101720004D086EE072E0CE0101960E941208BE01E3
:101730006F5F7F4F81E090E00E945508CE010196D7
:101740000E944D0865E172E0CE0101960E941208E8
:10175000BE016F5F7F4F82E090E00E945508CE018E
:1017600001960E944D086CEB71E080E00E94DF065C
:1017700099CE6DE172E0C8010E94AC13892B49F447
:1017800081E080935C0280E00E940F068EE690E08C
:101790004ACE61E671E0C8010E94AC13892B09F0C2
:1017A00083CE10925C0280CE1F920F920FB60F92E2
:1017B00011242F933F934F935F936F937F938F9356
:1017C0009F93AF93BF93EF93FF9384E692E00E94C1
:1017D000E902FF91EF91BF91AF919F918F917F911E
:1017E0006F915F914F913F912F910F900FBE0F908E
:1017F0001F9018951F920F920FB60F9211242F93DE
:101800008F939F93EF93FF93E0917402F091750291
:101810008081E0917A02F0917B0282FD1BC0908171
:1018200080917D028F5F8F7320917E02821741F03D
:10183000E0917D02F0E0EC59FD4F958F80937D02A1
:10184000FF91EF919F918F912F910F900FBE0F906D
:101850001F9018958081F4CF1F920F920FB60F92B0
:1018600011242F933F938F939F93AF93BF938091B6
:10187000580290915902A0915A02B0915B023091A6
:10188000480223E0230F2D3758F50196A11DB11D05
:10189000209348028093580290935902A0935A02D1
:1018A000B0935B028091490290914A02A0914B0251
:1018B000B0914C020196A11DB11D809349029093F5
:1018C0004A02A0934B02B0934C02BF91AF919F91FB
:1018D0008F913F912F910F900FBE0F901F901895F1
:1018E00026E8230F0296A11DB11DD2CF10926702E8
:1018F0001092660288EE93E0A0E0B0E08093680268
:1019000090936902A0936A02B0936B028AE391E01C
:10191000909365028093640285EC90E0909371024D
:101920008093700284EC90E0909373028093720233
:1019300080EC90E0909375028093740281EC90E0CB
:10194000909377028093760282EC90E090937902F4
:101950008093780286EC90E090937B0280937A02E9
:1019600010927D0210927E0210927F0210928002ED
:10197000109258051092570584E692E09093530513
:1019800080935205109209038CE2809355058BE3F6
:10199000809354058FE28093560580E4809304037E
:1019A0008FE3809305031092030310924E0510926B
:1019B0004D051092500510924F0581E080934B0524
:1019C000E9E5F5E01192119285E0ED3BF807D1F7DA
:1019D000109208036AE471E08EE592E00C9412081C
:1019E000CF93DF93CDB7DEB762970FB6F894DEBF23
:1019F0000FBECDBF789484B5826084BD84B581600C
:101A000084BD85B5826085BD85B5816085BD8091C9
:101A10006E00816080936E00109281008091810041
:101A20008260809381008091810081608093810039
:101A3000809180008160809380008091B1008460FB
:101A40008093B1008091B00081608093B00080915C
:101A50007A00846080937A0080917A00826080931B
:101A60007A0080917A00816080937A0080917A0078
:101A7000806880937A001092C10081E090E090939A
:101A80004E0280934D0217E0412E512C06E0602E4D
:101A9000712C88E0E82EF12C9AE0C92ED12C29E097
:101AA000A22EB12C3CE0832E912C00914D0210917E
:101AB0004E02033011050CF42CC262E0809100014B
:101AC0000E94F80362E0809101010E94F80362E045
:101AD000809107010E94F80362E0809108010E9452
:101AE000F803E0917402F091750282E08083E09146
:101AF0007002F09171021082E0917202F091730213
:101B000080E1808310927C02E0917802F09179026A
:101B100086E08083E0917602F09177028081806197
:101B20008083E0917602F0917702808188608083E3
:101B3000E0917602F0917702808180688083E09165
:101B40007602F091770280818F7D80836BE872E06E
:101B500083E00E94240682ED99E090935A058093D9
:101B6000590588EF96E090935E0580935D0583EFBD
:101B700096E09093600580935F0586EC98E09093E3
:101B800068058093670584E796E0909370058093DD
:101B90006F058BE795E0909372058093710582E164
:101BA00092E0909374058093730561E08BE00E944E
:101BB000F80380910E0190910F010E94290462E0C8
:101BC00081E10E94F80362E082E10E94F80362E092
:101BD00083E10E94F80380915C02882309F4F6C037
:101BE00060E0C62E61E0D62EF12CE12C79E0272EA4
:101BF000312CECE04E2E512CF7E06F2E712CA6E02C
:101C0000AA2EB12CB8E08B2E912CD60111968C9176
:101C10000E94A1038C01F60180810E94A103F7E0DC
:101C2000FE9DD001FF9DB00D1124A050BF4F169610
:101C3000EC911697EF70000F111F082B24E0E29F24
:101C4000F0011124E85EFE4FE00FF11D8081169631
:101C50008C93169716968C918073803109F0D6C1BB
:101C6000E114F10409F0B7C167E272E088E00E9474
:101C7000DF0683E10E94A103892BA1F500911001E9
:101C8000109111010F3011053CF50F5F1F4F10939C
:101C90001101009310018AE090E090935402809328
:101CA00053023092520220925102509250024092BE
:101CB0004F02602F0E94D804709254026092530227
:101CC000B0925202A09251029092500280924F0222
:101CD000602F8AE00E94D80465E070E080E090E028
:101CE0000E94A6046AE070E080E090E00E94A604F2
:101CF000B7E0CB0ED11CEA94EF2809F068C100E3ED
:101D000011E035E5E32E32E0F32ED80111968C91E7
:101D10000E94A103F70120812817190609F44CC07D
:101D2000D801DC902111B7C1B1E0B0836AE471E061
:101D3000CE010D960E9412086D2DCE010D960E94C7
:101D4000A20741E050E065E472E0CE010D960E94EA
:101D50004B0770E060E0CE010D960E947207BE0155
:101D6000635F7F4FCE0107960E94090880910103AF
:101D7000811114C088E00E940F06BE01695F7F4F89
:101D8000CE0101960E940908CE0101960E944802E8
:101D9000CE0101960E944D080E94A505CE0107962E
:101DA0000E944D08CE010D960E944D0869E170E039
:101DB00080E090E00E94A6040E5F1F4FFFEFEF1A35
:101DC000FF0A21E00633120709F09FCF8091080334
:101DD0008111C9C18091520590915305DC01ED91AB
:101DE000FC910084F185E02D0995892B09F4BBC194
:101DF0008091520590915305DC01ED91FC91008496
:101E0000F185E02D0995E12C22E0F22E811592401A
:101E100064F48091520590915305DC01ED91FC91A1
:101E20000084F185E02D09957C0100915205109107
:101E300053059AE4A92E93E0B92E6501912C812CCB
:101E4000E814F90409F03EC110E000E0E016F106E4
:101E500009F4BCCFD5019D915D0110924A053091E6
:101E600056052091070390930703931304C0921320
:101E700002C01092070380910303E82FF0E0409125
:101E80005405EF5FFC4F941355C1321709F452C14A
:101E90001186882329F0B1E0B0934A051092070318
:101EA0001092030310924E0510924D0510925005AA
:101EB00010924F05E1E0E0934B05D0904A05F1E028
:101EC000DF124EC10E94AB01882309F43DC1D092BC
:101ED0004B05D0924C0580914D0590914E050E9486
:101EE000CB1080930203823308F033C120914C055C
:101EF000222309F42EC1FC01FF27EE0FFF1FE75A32
:101F0000FA4F0190F081E02D309709F422C1099534
:101F100027C10130110509F049C0D0925402C09286
:101F20005302B0925202A0925102909250028092BB
:101F30004F0261E0809153020E94F8032090510209
:101F400061E0822D0E94F80330904F0261E0832D02
:101F50000E94F80361E0822D0E94CA0360E0832D95
:101F60000E94CA0360E08FE00E94D80461E08CE028
:101F70000E94D8046FEF89E00E94D804609110019C
:101F80008AE00E94D80467E08BE00E94D8046FE0EA
:101F900081E00E94D8046FE082E00E94D8040F5FC5
:101FA0001F4F10934E0200934D027FCD023011055A
:101FB00009F0BFCF509254024092530270925202E5
:101FC00060925102F0925002E0924F02B2CFEE24A2
:101FD000E394F12C1ACE6FE272E088E00E94DF06F3
:101FE00083E10E94A103892B09F07CCE80910E0130
:101FF00090910F01813F91050CF06ECE0F9690935A
:102000000F0180930E010E94290466CE803209F0F0
:102010006FCEE114F10451F565E372E088E00E94AF
:10202000DF0683E10E94A103892B09F05BCE0091BA
:10203000100110911101101611060CF04DCE015037
:1020400011091093110100931001AAE0B0E0B093C0
:102050005402A093530230925202209251025092A5
:10206000500240924F02602F8AE024CE6EE372E06D
:1020700088E00E94DF0683E10E94A103892B09F01A
:102080002BCE80910E0190910F018F3091050CF4B1
:1020900023CE0F97B4CF10826AE471E0CE010D9683
:1020A0000E9412086D2DCE010D960E94A20741E0FC
:1020B00050E065E472E0CE010D960E944B0761E0AE
:1020C00070E049CE2FB7F894809158029091590250
:1020D000A0915A02B0915B022FBFF80180879187CF
:1020E000A287B387D801ED91FC910284F385E02D9E
:1020F000C801099597FF44C02FB7F8948091580202
:1021000090915902A0915A02B0915B022FBFF80141
:102110004085518562857385841B950BA60BB70B93
:10212000448155816681778184179507A607B70793
:10213000C8F28ACE91878F5F809303039091050345
:10214000891708F0ADCEB9CE10924C0590E080E032
:10215000C8CEE0915705F0915805309709F0D7CED9
:102160000F5F1F4F73CE80E090E0892B09F433CDD1
:102170000E94D502882309F42ECD0E9400002BCDA9
:10218000D6018D936D01BFEF8B1A9B0A59CE8EE558
:1021900092E00C944D08FC0188279927E89421913E
:1021A0002032E9F3293010F02E30C8F32B3241F001
:1021B0002D3239F4689404C00E943011820F911DB1
:1021C000219120532A30C0F31EF4909581959F4FA2
:1021D00008951F93FC0199278827BC01E894119169
:1021E0001032E9F3193010F01E30C8F31B3251F0F1
:1021F0001D3249F4689406C00E941B11610F711DC5
:10220000811D911D119110531A30B0F33EF4909539
:102210008095709561957F4F8F4F9F4F1F910895C7
:10222000BB274A3031F4992322F4BDE29095819581
:102230009F4F0C943911592F482F372F262F660F97
:10224000771F881F991F660F771F881F991F620FBE
:10225000731F841F951F660F771F881F991F08958E
:102260007AE0979F902D879F802D910D11240895DE
:10227000BB27FB015527AA27880F991FAA1FA41760
:1022800010F0A41B83955051B9F7A05DAA3308F054
:10229000A95DA193009779F7B111B1931192CB0188
:1022A0000C945211DC01FC01672F71917723E1F747
:1022B000329704C07C916D9370836291AE17BF0713
:1022C000C8F308952F923F924F925F926F927F9240
:1022D0008F929F92AF92BF92CF92DF92EF92FF9236
:1022E0000F931F93CF93DF93CDB7DEB7CA1BDB0BE2
:1022F0000FB6F894DEBF0FBECDBF09942A88398887
:1023000048885F846E847D848C849B84AA84B9848D
:10231000C884DF80EE80FD800C811B81AA81B98199
:10232000CE0FD11D0FB6F894DEBF0FBECDBFED01AD
:102330000895A1E21A2EAA1BBB1BFD010DC0AA1F06
:10234000BB1FEE1FFF1FA217B307E407F50720F01E
:10235000A21BB30BE40BF50B661F771F881F991F99
:102360001A9469F760957095809590959B01AC01E2
:10237000BD01CF010895EE0FFF1F0590F491E02DF0
:1023800009940F931F93CF93DF938230910510F43C
:1023900082E090E0E091BF05F091C00530E020E0E0
:1023A000B0E0A0E0309799F42115310509F44AC056
:1023B000281B390B24303105D8F58A819B816115A2
:1023C000710589F1FB0193838283FE0111C0408175
:1023D00051810281138148175907E0F048175907C6
:1023E00099F4109761F012960C93129713961C9320
:1023F0003296CF01DF91CF911F910F9108950093F5
:10240000BF051093C005F4CF2115310551F04217D7
:10241000530738F0A901DB019A01BD01DF01F80182
:10242000C1CFEF01F9CF9093C0058093BF05CDCF09
:10243000FE01E20FF31F81939193225031093983FA
:102440002883D7CF2091BD053091BE05232B41F4C1
:1024500020911401309115013093BE052093BD05E4
:1024600020911201309113012115310541F42DB74E
:102470003EB74091160150911701241B350BE09196
:10248000BD05F091BE05E217F307A0F42E1B3F0B2C
:102490002817390778F0AC014E5F5F4F24173507D6
:1024A00048F04E0F5F1F5093BE054093BD058193CA
:1024B00091939FCFF0E0E0E09CCFCF93DF93009724
:1024C000E9F0FC01329713821282A091BF05B0910E
:1024D000C005ED0130E020E01097A1F420813181AA
:1024E000820F931F2091BD053091BE052817390733
:1024F00009F061C0F093BE05E093BD05DF91CF9177
:102500000895EA01CE17DF07E8F54A815B819E0155
:1025100041155105B1F7E901FB83EA8349915991CE
:10252000C40FD51FEC17FD0761F4808191810296DD
:10253000840F951FE90199838883828193819B830E
:102540008A83F0E0E0E012968D919C9113970097BA
:10255000B9F52D913C911197CD010296820F931FF1
:102560002091BD053091BE052817390739F63097FF
:1025700051F51092C0051092BF05B093BE05A0930F
:10258000BD05BCCFD383C28340815181840F951F89
:10259000C817D90761F44E5F5F4F88819981480F52
:1025A000591F518340838A819B81938382832115A4
:1025B000310509F0B0CFF093C005E093BF059ECF81
:1025C000FD01DC01C0CF13821282D7CFB0E0A0E0C2
:1025D000ECEEF2E10C9464118C01009751F4CB0104
:1025E0000E94C1118C01C801CDB7DEB7E0E10C94A7
:1025F0008011FC01E60FF71F9C0122503109E21700
:10260000F30708F49DC0D901CD91DC911197C6174D
:10261000D70798F0C530D10530F3CE01049786175F
:10262000970708F3C61BD70B2297C193D1936D93DD
:102630007C93CF010E945D12D6CF5B01AC1ABD0A1C
:102640004C018C0E9D1EA091BF05B091C005512C70
:10265000412CF12CE12C109731F58091BD05909122
:10266000BE058815990509F05CC04616570608F0A6
:1026700058C08091120190911301009741F48DB7D9
:102680009EB74091160150911701841B950BE817D6
:10269000F90708F055C0F093BE05E093BD05F901B8
:1026A00071836083A0CF8D919C91119712966C904D
:1026B000129713967C901397A815B90559F56C01DC
:1026C00042E0C40ED11CCA14DB0420F1AC014A194B
:1026D0005B09DA011296159780F06282738251834A
:1026E0004083D9016D937C93E114F10471F0D7011B
:1026F0001396FC93EE93129776CF22968C0F9D1F24
:10270000F90191838083F301EFCFF093C005E0934B
:10271000BF0569CF4816590608F42C017D01D30185
:102720009ACFCB010E94C1117C01009749F0AE0104
:10273000B8010E94A313C8010E945D12870153CF04
:1027400010E000E050CFFB01DC0102C001900D92CF
:1027500041505040D8F70895FB01DC018D91019064
:1027600080190110D9F3990B0895FB01DC01019048
:102770000D920020E1F7089511E0CFE5D1E004C00B
:10278000FE010E94BB112196C036D107C9F7F8940B
:02279000FFCF79
:1027920002030100FFFF00040564009CFF00FF002C
:1027A20005000000C10580000302010013000100C2
:1027B20023020000030504000303042003050310A1
:1027C200011102120313000000000B036B029802B6
:1027D2005803C902A702BB020D0A00554E4B4E4FC9
:1027E200574E20434F4D4D414E4400535441525495
:1027F20000454E4400535041445F444953504C41BC
:1028020059004C454E4754483D00524F57533D31B5
:10281200004E4F50414444494E473D3100574944D0
:1028220054483D313333004845494748543D3430DC
:1028320000464F4E5453495A453D343000494E49A3
:10284200540050494E4700504F4E4700434F4E46AA
:102852004947004F5054494F4E00535041445F5036
:10286200555348425554544F4E00454E434F4445EC
:10287200525F505553480054465200544553540039
:10288200535041445F444F55424C455F454E434F80
:1028920044455200454E434F4445525F3100414347
:1028A20054495645005354414E4442590053434102
:1028B2004E5354415445003130312C3130300031C7
:1028C20030312C31003130312C2D3130300031306B
:0828D200312C2D31002C000017
:00000001FF
