:100000000C94D7000C9498070C9471070C94FF0083
:100010000C94FF000C94FF000C94FF000C94FF0064
:100020000C94FF000C94FF000C94FF000C94FF0054
:100030000C94FF000C94FF000C94FF000C94FF0044
:100040000C9427070C94FF000C94F5060C94CF0633
:100050000C94FF000C94FF000C94FF000C94FF0024
:100060000C94FF000C94FF004E414E494E495459E8
:10007000494E46CDCCCC3D0AD7233C17B7D1387773
:10008000CC2B329595E6241FB14F0A000020410089
:1000900000C84200401C4620BCBE4CCA1B0E5AAED3
:1000A000C59D7400000000240027002A0000000005
:1000B00000250028002B0073696D2F726164696F41
:1000C000732F737462795F6E6176315F66696E65F6
:1000D0005F646F776E0073696D2F726164696F730F
:1000E0002F737462795F6E6176315F66696E655FEA
:1000F00075700073696D2F726164696F732F73740B
:1001000062795F6E6176315F636F617273655F64A0
:100110006F776E0073696D2F726164696F732F73EF
:100120007462795F6E6176315F636F617273655F70
:100130007570006C616D696E61722F423733382FB4
:10014000707573685F627574746F6E2F73776974FE
:1001500063685F667265715F6E6176315F7072654C
:10016000737300000000002300260029000404042B
:100170000404040404020202020202030303030350
:10018000030102040810204080010204081020012D
:10019000020408102000000008000201000003040F
:1001A000070000000000000000005D08D2111124CB
:1001B0001FBECFEFD8E0DEBFCDBF26E0A4EAB2E09D
:1001C00001C01D92A937B207E1F712E0A0E0B1E04B
:1001D000E4E5F6E302C005900D92A43AB107D9F721
:1001E00010E0C6EDD0E004C02197FE010E94761613
:1001F000C53DD107C9F70E94EF080C941D1B0C9454
:100200000000FC01248135816217730720F480818E
:100210009181009729F41092B10281EB92E0089548
:10022000860F971F08950895AF92BF92CF92DF92E5
:10023000EF92FF920F931F93CF93DF936C017B019B
:100240008B01040F151FEB015E01AE18BF08C0172C
:10025000D10759F06991D601ED91FC910190F0819F
:10026000E02DC6010995892B79F7C501DF91CF9162
:100270001F910F91FF90EF90DF90CF90BF90AF90C4
:100280000895FC01538D448D252F30E0842F90E09C
:10029000821B930B541710F0CF9608950197089581
:1002A000FC01918D828D981761F0A28DAE0FBF2F4A
:1002B000B11D5D968C91928D9F5F9F73928F90E0A0
:1002C00008958FEF9FEF0895FC01918D828D98170F
:1002D00031F0828DE80FF11D858D90E008958FEF4C
:1002E0009FEF0895FC01918D228D892F90E0805C15
:1002F0009F4F821B91098F739927089582E093E0A5
:100300000E94720121E0892B09F420E0822F0895D8
:1003100080E090E0892B29F00E947E0181110C94ED
:1003200000000895FC01A48DA80FB92FB11DA35A98
:10033000BF4F2C91848D90E001968F739927848F05
:10034000A689B7892C93A089B1898C918370806428
:100350008C93938D848D981306C00288F389E02DC9
:1003600080818F7D80830895EF92FF920F931F937A
:10037000CF93DF93EC0181E0888F9B8D8C8D981358
:100380001AC0E889F989808185FF15C09FB7F89464
:10039000EE89FF896083E889F989808183708064B0
:1003A00080839FBF81E090E0DF91CF911F910F91FB
:1003B000FF90EF900895F62E0B8D10E00F5F1F4F0A
:1003C0000F731127E02E8C8D8E110CC00FB607FC19
:1003D000FACFE889F989808185FFF5CFCE010E94A7
:1003E0009201F1CFEB8DEC0FFD2FF11DE35AFF4F82
:1003F000F0829FB7F8940B8FEA89FB898081806235
:10040000CFCFCF93DF93EC01888D8823B9F0AA89F1
:10041000BB89E889F9898C9185FD03C0808186FDBF
:100420000DC00FB607FCF7CF8C9185FFF2CF80810E
:1004300085FFEDCFCE010E949201E9CFDF91CF91F0
:100440000895833081F028F4813099F08230A9F04A
:1004500008958730A9F08830C9F08430B1F48091D4
:1004600080008F7D03C0809180008F778093800013
:10047000089584B58F7784BD089584B58F7DFBCFB3
:100480008091B0008F778093B00008958091B00084
:100490008F7DF9CF1F93CF93DF93282F30E0F901A1
:1004A000EB56FE4F8491F901EF57FE4FD491F901BD
:1004B000E359FE4FC491CC23A9F0162F81110E945D
:1004C0002102EC2FF0E0EE0FFF1FE355FF4FA59147
:1004D000B4918FB7F894EC91111108C0D095DE2338
:1004E000DC938FBFDF91CF911F910895DE2BF8CF62
:1004F000CF93DF9390E0FC01EF57FE4F2491835997
:100500009E4FFC0184918823D1F090E0880F991FC1
:10051000FC01ED55FF4FA591B491FC01E355FF4F50
:10052000C591D491623071F49FB7F8943C91822FB9
:10053000809583238C93E8812E2B28839FBFDF91A6
:10054000CF9108958FB7F894EC912E2B2C938FBFF9
:10055000F6CF1F93CF93DF93182FEB0161E00E943A
:100560007802209739F460E0812FDF91CF911F91BD
:100570000C944A02CF3FD10511F461E0F5CFE12F91
:10058000F0E0EB56FE4FE491E33031F140F4E1301E
:10059000B1F0E230E1F0C038D1057CF7E4CFE730CC
:1005A00029F1E83059F1E430B1F7809180008062A0
:1005B00080938000D0938B00C0938A0004C084B5E0
:1005C000806884BDC7BDDF91CF911F91089584B528
:1005D000806284BDC8BDF7CF809180008068809321
:1005E0008000D0938900C0938800EDCF8091B00047
:1005F00080688093B000C093B300E5CF8091B000D5
:1006000080628093B000C093B400DDCF3FB7F89410
:100610008091AD029091AE02A091AF02B091B00274
:1006200026B5A89B05C02F3F19F00196A11DB11D4D
:100630003FBFBA2FA92F982F8827BC01CD01620F89
:10064000711D811D911D42E0660F771F881F991F44
:100650004A95D1F708958F929F92AF92BF92CF9211
:10066000DF92EF92FF920E9406034B015C018FE044
:10067000C82ED12CE12CF12C0E94060368197909AF
:100680008A099B09683E734081059105A8F321E022
:10069000C21AD108E108F10888EE880E83E0981E9E
:1006A000A11CB11CC114D104E104F10429F7FF908D
:1006B000EF90DF90CF90BF90AF909F908F90089574
:1006C0002FB7F8946091A9027091AA028091AB02B1
:1006D0009091AC022FBF08950895DC01ED91FD913A
:1006E0008081ED91FD919081ED91FD916C91637010
:1006F0008E2309F064609F2309F06860EAE8F3E064
:10070000E60FF11D659565956D936D917D918D91C8
:100710009D91099423C01AC012C016C010C01EC0FB
:1007200009C014C013C006C019C009C00DC007C05D
:100730000DC014C062507040804090400BC06150AA
:1007400070408040904006C06E5F01C06F5F7F4F79
:100750008F4F9F4F9E938E937E936E9308958091BB
:10076000A6029091A7020C946D038091A40290912F
:10077000A5020C946D030F931F93CF93DF93082F63
:10078000162FD42FC8E06D2F661F6627661F802F97
:100790000E944A02DD0F61E0812F0E944A0260E060
:1007A000812F0E944A02C15071F7DF91CF911F91B2
:1007B0000F9108950F931F93CF93DF9300D0CDB780
:1007C000DEB78C0169834A8360E0FC0182810E946C
:1007D0004A024981F801608184810E94BB034A81F9
:1007E000F801608184810E94BB0361E0F80182818D
:1007F0000F900F90DF91CF911F910F910C944A02AF
:100800003DED340F3A30B0F030E0A8E1B1E0F0E077
:10081000E0E05C915523A1F0129654130FC0EE0F47
:10082000FF1FE85EFE4F4181232B09F040686F5F98
:100830000C94DA03435F21E030E0E7CF3196E9CF53
:1008400040E0F5CF462F4F706AE00C94DA030F9327
:100850001F93CF938C01C1E040E06C2FC8010E9430
:10086000DA03CF5FC930C1F7CF911F910F9108957F
:10087000CF93DF93EC0161E08A810E944A0247E056
:100880006BE0CE010E94DA0340E069E0CE010E94F5
:10089000DA0341E06CE0CE010E94DA0340E06FE051
:1008A000CE010E94DA03CE010E9427046FE0CE0140
:1008B000DF91CF910C9422046F927F928F929F923E
:1008C000AF92BF92CF92DF92EF92FF920F931F935E
:1008D000CF93DF93CDB7DEB7E0970FB6F894DEBFC6
:1008E0000FBECDBF4C011AA219A2FE01B3968EE035
:1008F000DF011D928A95E9F7FB0101900020E9F7DD
:10090000CF010197861B970B8131910510F080E193
:1009100090E0DB0110E000E021E030E0AD01461B9B
:10092000570B481759072CF54D914E3269F4F801D1
:100930003197EE0FFF1F41E050E04C0F5D1FE40FB9
:10094000F51F31832083EACFE1E2F0E0EC0FFD1FD9
:10095000E00FF11F4083F801EE0FFF1F41E050E070
:100960004C0F5D1FE40FF51F118210820F5F1F4FA8
:10097000D5CF0930110514F008E010E0CE01019642
:100980007C015E0191E2A90EB11C650138016A0C7F
:100990007B1CC6018A199B098017910794F4D70123
:1009A0008D919D917D01F60141916F0121E0892B8F
:1009B00009F420E0B3016C197D09C4010E94000410
:1009C000E8CFE0960FB6F894DEBF0FBECDBFDF9143
:1009D000CF911F910F91FF90EF90DF90CF90BF903C
:1009E000AF909F908F907F906F900895FB01019042
:1009F0000020E9F73197AF01461B570BDC01ED9161
:100A0000FC910280F381E02D099469E374E0809108
:100A10009F039091A0030E94F604E9E3F4E00190A3
:100A20000020E9F7EA57F44041F466E971E080916B
:100A30009F039091A0030C94F60408950F931F93C5
:100A4000CF93DF93C0916F06D0917006C436D10565
:100A50006CF58C0180E190E00E947C16FC01DE01C7
:100A6000AA0FBB1FAB55BA4FED93FC9315830483BC
:100A7000138212821386128681E090E09587848724
:100A80008FEF9FEF9183808397878687CE010196B2
:100A90009093700680936F06109272061092710602
:100AA000CE01DF91CF911F910F910895CFEFDFEF2E
:100AB000F7CFEF92FF920F931F93CF93DF93C091E5
:100AC0006D06D0916E06C436D1050CF046C08B0180
:100AD0007C0184E290E00E947C16FC01DE01AA0FFA
:100AE000BB1FA352BB4FED93FC93178A168AF58A5E
:100AF000E48A81E090E09383828340E050E060E804
:100B00007FE346835783608771874AE050E060E067
:100B100070E0448755876687778795838483118F34
:100B2000008F128E138E148E158E13A212A28FEFC9
:100B30009FEF91838083CE01019690936E06809300
:100B40006D061092720610927106CE01DF91CF9160
:100B50001F910F91FF90EF900895CFEFDFEFF5CF4A
:100B6000880F991FFC01EB55FA4F0190F081E02DA1
:100B7000309749F18081918197FD22C01F922EE329
:100B80002F931F9221E02F939F938F931F928BE6B9
:100B90008F931F928CE38F9388E991E09F938F93BB
:100BA00089E394E09F938F930E947C180E9405052F
:100BB0008DB79EB70E960FB6F8949EBF0FBE8DBF31
:100BC00090E080E008958FEF9FEF089577FD1EC0BD
:100BD0001F922EE32F937F936F939F938F931F9278
:100BE0008CE38F9386EA91E09F938F9389E394E05F
:100BF0009F938F930E947C188DB79EB70C960FB66B
:100C0000F8949EBF0FBE8DBF0C94050508951F93E9
:100C1000CF93DF93CFE9D3E01F811F8283EA93E074
:100C20000E94DE111F83DF91CF911F910895FC0177
:100C300080819181009711F00C94181708950F93FB
:100C40001F93CF93DF938C01EB01FC018081918195
:100C50000097E1F06881798161157105A9F0428101
:100C600053812C813D814217530770F00E94671811
:100C70008C819D81F801958384831D821C82DF9184
:100C8000CF911F910F9108950E9418178881998123
:100C9000F801918380838A819B81938382838C81F5
:100CA0009D8195838483198218821B821A82E5CFE5
:100CB000EF92FF920F931F93CF93DF93EC017B0191
:100CC0008A0188819981009729F02A813B81241724
:100CD000350788F4B8016F5F7F4F0E94A117009716
:100CE00091F0998388831B830A832C813D81232B78
:100CF00011F4FC0110821D830C83B7018881998156
:100D00000E9467180CC088819981009711F00E9499
:100D10001817198218821D821C821B821A82CE012A
:100D2000DF91CF911F910F91FF90EF900895EF9277
:100D3000FF920F931F93CF93DF93CDB7DEB7A297A8
:100D40000FB6F894DEBF0FBECDBF8C01CB01BA0148
:100D5000F8011182108213821282158214822AE015
:100D6000AE014F5F5F4F7A010E942312F70101909D
:100D70000020E9F73197AF014E195F09B701C801AB
:100D80000E945806A2960FB6F894DEBF0FBECDBFE4
:100D9000DF91CF911F910F91FF90EF9008951F92D7
:100DA0000F920FB60F9211242F933F934F935F939F
:100DB0006F937F938F939F93AF93BF93EF93FF9323
:100DC00082E093E00E949201FF91EF91BF91AF9179
:100DD0009F918F917F916F915F914F913F912F9153
:100DE0000F900FBE0F901F9018951F920F920FB685
:100DF0000F9211242F938F939F93EF93FF93E09182
:100E00001203F09113038081E0911803F09119030C
:100E100082FD1BC0908180911B038F5F8F73209197
:100E20001C03821741F0E0911B03F0E0EE5FFC4FE2
:100E3000958F80931B03FF91EF919F918F912F913D
:100E40000F900FBE0F901F9018958081F4CF1F92C6
:100E50000F920FB60F9211242F933F938F939F936E
:100E6000AF93BF938091A9029091AA02A091AB0287
:100E7000B091AC023091A80223E0230F2D3758F532
:100E80000196A11DB11D2093A8028093A902909301
:100E9000AA02A093AB02B093AC028091AD029091F4
:100EA000AE02A091AF02B091B0020196A11DB11D9A
:100EB0008093AD029093AE02A093AF02B093B002C4
:100EC000BF91AF919F918F913F912F910F900FBE46
:100ED0000F901F90189526E8230F0296A11DB11DB3
:100EE000D2CF1F920F920FB60F9211242F933F93E0
:100EF0004F935F936F937F938F939F93AF93BF9322
:100F0000EF93FF93E0910201F09103010995FF91A6
:100F1000EF91BF91AF919F918F917F916F915F9171
:100F20004F913F912F910F900FBE0F901F901895EA
:100F30001F920F920FB60F9211242F933F934F934E
:100F40005F936F937F938F939F93AF93BF93EF9331
:100F5000FF93E0910001F09101010995FF91EF915C
:100F6000BF91AF919F918F917F916F915F914F91C1
:100F70003F912F910F900FBE0F901F901895FB017E
:100F800005900020E9F7609570956E0F7F1FCB01EB
:100F90000895FA01DC012150304030F08D91059028
:100FA000801919F40020B9F7881B990B0895823035
:100FB00021F08330A9F080E008957093A50260933A
:100FC000A40285EB93E0909301018093000180914E
:100FD00069008C7F816080936900E89A81E00895C0
:100FE0007093A7026093A6028FEA93E090930301A7
:100FF0008093020180916900837F846080936900FF
:10100000E99AECCF0F931F93CF93DF93EC01062F58
:10101000142F62E0802F0E94780262E0812F0E94EC
:101020007802802F90E0FC01E359FE4FE491F0E05C
:10103000EE0FFF1FED59FE4FA591B491B983A88320
:10104000FC01EF57FE4F24912C83812F90E0FC018F
:10105000E359FE4FE491F0E0EE0FFF1FED59FE4F14
:10106000459154915B834A83FC01EF57FE4FE49115
:10107000ED831F82188619861A868BE39FE10197FC
:10108000F1F78C91282391E009F490E0DA018C913A
:10109000E82309F092609E83BE01802F0E94D7074B
:1010A0008B87BE01812F0E94D7079B85890F8B8775
:1010B000DF91CF911F910F910895CF93DF93E2E0DD
:1010C000F3E01382128288E891E09183808385ECBB
:1010D00090E09587848784EC90E09787868780EC02
:1010E00090E0918B808B81EC90E0938B828B82ECF3
:1010F00090E0958B848B86EC90E0978B868B118E9D
:10110000128E138E148EF093A003E0939F0384EF4E
:1011100091E0A0E0B0E084839583A683B783CCEF11
:10112000D2E08AE090E09D838C8389E090E09B830D
:101130008A838CE090E09983888361E08AE00E9452
:10114000780261E08A810E94780261E088810E94D1
:101150007802C6EFD2E087E090E09D838C8386E042
:1011600090E09B838A8388E090E09983888361E0A4
:1011700087E00E94780261E08A810E94780261E043
:1011800088810E94780243E062E08AEE92E00E9449
:10119000020845E064E08EED92E00E940208E8ED6E
:1011A000F2E011821082138212821582148250E0C2
:1011B00040E067E971E0CF010E945806E2EDF2E0FD
:1011C00011821082138212821582148250E040E054
:1011D00067E971E0CF01DF91CF910C945806CF936E
:1011E000DF9300D000D000D0CDB7DEB7789484B5BF
:1011F000826084BD84B5816084BD85B5826085BD13
:1012000085B5816085BD80916E00816080936E00A0
:101210001092810080918100826080938100809192
:101220008100816080938100809180008160809343
:1012300080008091B10084608093B1008091B00003
:1012400081608093B00080917A00846080937A00FE
:1012500080917A00826080937A0080917A00816028
:1012600080937A0080917A00806880937A0010924F
:10127000C10061E08BE00E94780262E083E10E949D
:10128000780262E082E10E94780268EC70E08BE014
:101290000E94A902F8941092F1021092F2021092A8
:1012A000F3021092F4027894F8941092E5021092EE
:1012B000E6021092E7021092E802789486EF92E03C
:1012C0000E9438048CEF92E00E94380486EF92E08E
:1012D0000E9427048CEF92E00E94270463E08CEFC9
:1012E00092E00E94220463E086EF92E00E942204D2
:1012F00062EB71E08CEF92E00E945C0467EB71E0BE
:1013000086EF92E00E945C04E0911203F0911303D7
:1013100082E08083E0910E03F0910F031082E09150
:101320001003F091110380E1808310921A03E09181
:101330001603F091170386E08083E0911403F09187
:101340001503808180618083E0911403F09115037F
:10135000808188608083E0911403F091150380817F
:1013600080688083E0911403F091150380818F7D64
:1013700080838DEB91E09093DC048093DB041092EA
:10138000D2041092D10410926E0610926D06109243
:10139000700610926F0610927206109271061092EB
:1013A000A10362EB72E080ED91E00E94590566EBCB
:1013B00072E080EF91E00E94590500916D06109156
:1013C0006E06043611050CF040C084E290E00E94E5
:1013D0007C16FC01D801AA0FBB1FA352BB4FED9393
:1013E000FC93178A168A86E192E0958B848B81E0C4
:1013F00090E09383828382E090E09583848388ECFD
:1014000092E0918F808F168E178E10A211A284E623
:1014100090E0A0E0B0E084879587A687B787168222
:1014200017821086118683E090E093A382A38FEF4A
:101430009FEF918380830F5F1F4F10936E06009381
:101440006D06109272061092710600916F0610914F
:1014500070060436110584F580E190E00E947C1648
:10146000FC01000F111FD801AB55BA4FED93FC934F
:1014700083E391E09583848313821282138612861C
:1014800081E090E0958784878FEF9FEF9183808341
:1014900082E190E09787868762E00E9478028091DF
:1014A0006F069091700601969093700680936F0678
:1014B000109272061092710684E191E00E941E055E
:1014C0009093BF028093BE0283EF90E00E941E05BE
:1014D0009093C1028093C00286ED90E00E941E05A9
:1014E0009093BB028093BA0287EB90E00E941E05A6
:1014F0009093BD028093BC0209E314E080919F03A6
:101500009091A003DC01ED91FC910084F185E02D28
:1015100009952091A103892B81F02C3381F08091D2
:101520009F039091A003DC01ED91FC910284F3856F
:10153000E02D09958093A103E1CF2C33C9F5C0902C
:101540009F03D090A003B2EAAB2EB3E0BB2EF12CE8
:10155000E12C0E946003F601608771878287938780
:10156000D601ED91FC910284F385E02DC601099529
:1015700097FFE9C60E946003F601408451846284AB
:1015800073846419750986099709448055806680BB
:101590007780641575058605970510F3F092380479
:1015A000E0923704E114F10409F092C01092A10313
:1015B0008091710690917206892B09F46AC42FE913
:1015C000422E23E0522E312C212C3EE3732E45E691
:1015D000642E80916D0690916E06281639060CF4E3
:1015E000FAC295EAE92E95E0F92EB12CA12C809152
:1015F0006F0690917006A816B9060CF04AC4D70180
:10160000ED91FC918081918197FD5BC00E94600308
:10161000D701ED91FC9146805780608471846419F4
:101620007509860997096D3271408105910508F4A5
:1016300048C02685378537FD00C43327F901EB56AE
:10164000FE4F8491F901EF57FE4FC490F901E35921
:10165000FE4FD490DD2009F4E8C381110E942102DD
:10166000ED2DF0E0EE0FFF1FED59FE4FA591B49167
:10167000EC91CE2291E080E009F490E0C92ED82EC2
:10168000D701ED91FC91848595858C159D05C9F058
:1016900060817181B1E0CB16D10409F0C9C38AE63B
:1016A00090E00E94E6050E946003D701ED91FC9155
:1016B0006683778380879187D701ED91FC91D586EA
:1016C000C486BFEFAB1ABB0AE2E0EE0EF11C8FCF6F
:1016D000F701E156FC4F2EE32383F7013296F09396
:1016E0003804E0933704E156FC4F12828091A20344
:1016F000813609F44FC074F4833309F497C08433FE
:1017000009F4EBC0823309F051CF1092D204109249
:10171000D1044CCF853609F4E1C1863611F1843607
:1017200009F044CFEDEDF4E090E080E020916D060B
:1017300030916E06821793070CF038CFA191B191CA
:1017400012962D913C911397225031092230310588
:1017500030F421E030E01B963C932E931A970196CB
:10176000E5CF20916D0630916E06EDEDF4E090E04E
:1017700080E0821793070CF071C18436910509F45B
:101780006DC1E190F190D7014D915C9157FDFCC086
:101790000196EFCF8091DB049091DC040097C9F0B3
:1017A0001F922F939F938F931F9280E38F931F928B
:1017B0008CE38F938DE392E09F938F931F930F930E
:1017C0000E947C180E9405050FB6F894DEBF0FBE7C
:1017D000CDBF41E050E05093D2044093D104EDEDF1
:1017E000F4E090E080E020916D0630916E06821763
:1017F0009307A4F0E5EAF5E090E080E020916F0621
:1018000030917006821793070CF0D0CEA191B19160
:101810004FEF5FEF4D935C930196F0CFA191B191A3
:101820002FEF3FEF2D933C930196DDCFF12CE12C70
:1018300080916D0690916E06E816F9060CF0B6CE12
:10184000F701EE0FFF1FE352FB4FC080D180D6019E
:1018500054966D917C916115710501F1FB01019028
:101860000020E9F73197AF01461B570B86EA93E05A
:101870000E946E18892B71F4F60180819181019686
:1018800049F40E940706D6018D939C93E0906D0663
:10189000F0906E06FFEFEF1AFF0ACACFF6018688B6
:1018A0009788092C000CAA08BB08C501B4010E9446
:1018B000BF079C01B501A40186EA93E00E94C90715
:1018C000892B41F7D6018D919C91019619F70E94C1
:1018D0000706F60191838083D9CFF12CE12C80910A
:1018E0006F0690917006E816F9060CF05FCEF701CE
:1018F000EE0FFF1FEB55FA4FC080D180D601129634
:101900006D917C916115710501F1FB010190002041
:10191000E9F73197AF01461B570B86EA93E00E9427
:101920006E18892B71F4F60180819181019649F43A
:101930000E940706D6018D939C93E0906F06F0906D
:101940007006FFEFEF1AFF0ACACFF6018480958078
:10195000092C000CAA08BB08C501B4010E94BF07EE
:101960009C01B501A40186EA93E00E94C907892B76
:1019700041F7D6018D919C91019619F70E940706B7
:10198000F60191838083D9CFF701C488D58846803A
:1019900057806084718420E030E048EC52E4C30159
:1019A000B2010E9458140E94D715CB0164E670E082
:1019B0000E940D16B82EA92EC301B2010E94D715A0
:1019C000D70192962C91929793963C919397129669
:1019D0008C91129713969C911397C114D10419F10D
:1019E0001F924EE34F93DF92CF92AF92BF927F93BD
:1019F0006F933F932F939F938F931F9282E68F93C2
:101A00001F928CE38F9386E492E09F938F931F93B2
:101A10000F930E947C180FB6F894DEBF0FBECDBFA7
:101A20000E940505C3CD1F924EE34F9357964C91EC
:101A300057974F9356964C914F93AF92BF927F9387
:101A40006F933F932F939F938F931F9282E68F9371
:101A50001F928CE38F9382E692E0D7CFA5EAB5E0A0
:101A600090E080E020916F06309170068217930716
:101A70000CF079C48436910509F475C4ED91FD919B
:101A80002081318137FD02C00196ECCF82819381A4
:101A90000097A1F01F922EE32F939F938F931F9295
:101AA0008DE68F931F928CE38F938DE392E09F934B
:101AB0008F931F930F930E947C18ADCF1F928EE3DC
:101AC0008F9385818F9384818F931F928DE68F935F
:101AD0001F928CE38F938EE792E0E9CF0E94070676
:101AE0005C0190E080E020916D0630916E068217D7
:101AF00093070CF05BCD7C015FE9E50EF11C9701CB
:101B0000220F331FD901A156BC4F6D01ED91FC91FD
:101B100020813181A216B30609F05BC02281338196
:101B20002D7F2130310509F054C0848195810197C2
:101B3000F9F4808C918C7090B0031092B00386EA17
:101B400093E00E94FC11F40160837183828393838C
:101B50007092B003D601ED91FC91A08DB18D8D9165
:101B60009D910D90BC91A02D828F938FA48FB58FE6
:101B7000EE0CFF1CF701E156FC4F7F010190F08154
:101B8000E02D84819581029701F5C08CD18C9090D5
:101B9000B0031092B00386EA93E00E94DA11D601F6
:101BA0006D937D938D939C9313979092B003D7017F
:101BB000ED91FC91A08DB18D8D919D910D90BC9179
:101BC000A02D868F978FA0A3B1A380916D069091D1
:101BD0006E06019688CF720132ECE31A3EEFF30AEB
:101BE000D701ED91FC918081918197FD0DC082819B
:101BF00093810297029740F4848195818130910509
:101C000051F0029709F47FC0BFEF2B1A3B0AE2E0C4
:101C10004E0E511CDECCA08DB18D4D915D916D911C
:101C20007C91828D938DA48DB58D481759076A07D5
:101C30007B0751F30E946003D701ED91FC918088EE
:101C40009188A288B388AB01BC01481959096A0977
:101C50007B0984859585A685B78521E0892B8A2B0C
:101C60008B2B29F482859385892B09F420E0822F20
:101C700090E0B0E0A0E084179507A607B70720F62C
:101C80008081918197FD1FC01F927F92008CF18D02
:101C9000E02D21812F9320812F939F938F931F926B
:101CA0006F921F92BCE3BF93E8E9F1E0FF93EF93DB
:101CB0001F930F930E947C180E9405050FB6F8949D
:101CC000DEBF0FBECDBFD701ED91FC91A08DB18DD0
:101CD0008D919D910D90BC91A02D828F938FA48F9B
:101CE000B58FF701C080D1800E946003D601509665
:101CF0006D937D938D939C935397D701ED91FC91B8
:101D00001386128681CFA08DB18D268D378D40A18F
:101D100051A16D917D918D919C910E94F213811141
:101D20006CC0D701ED91FC9182859385892B09F4D4
:101D30006BCFD701ED91FC91C080D180D7FC4EC014
:101D4000008CF18DE02D80809180A280B3801F9265
:101D50007F9220E030E048EC52E4C501B4010E94DB
:101D600058140E94D715CB0164E670E00E940D164E
:101D700097FF03C09195819591099F938F93C5011A
:101D8000B4010E94D7159B0177FF04C02227332797
:101D9000261B370B3F932F93DF92CF921F926F92A8
:101DA0001F92BCE3BF93E7E8F2E0FF93EF931F932A
:101DB0000F930E947C180FB6F894DEBF0FBECDBF04
:101DC00020E030E0A901C501B4010E94F21387FFB1
:101DD00003C05DE250933E040E940505D701ED91DA
:101DE000FC91A08DB18D8D919D910D90BC91A02DF8
:101DF000868F978FA0A3B1A374CF0E946003D701F1
:101E0000ED91FC9180889188A288B388681979093E
:101E10008A099B0984849584A684B78486169706CC
:101E2000A806B90608F07DCF84CFD12CC12C28CCD0
:101E300089E690E00E94E6053FCCA285B385109725
:101E400009F43FCC8D919C912485358582179307A9
:101E500009F437CC6081718118161906BCF48AE642
:101E600090E00E94E605D701ED91FC91A285B38533
:101E70008D919C91958784870E946003D701ED9195
:101E8000FC9166837783808791871BCC89E690E0FD
:101E9000E8CF8091710690917206892B09F438C2BF
:101EA0008091100190911101892B09F443C0109287
:101EB000D1021092D002E090D002F090D102FFEF58
:101EC000EF16F10409F074F4B7018BE00E94A90247
:101ED0000E942B032FEFE21AF20AF092D102E09255
:101EE000D002E9CF8FEF90E09093D1028093D0029F
:101EF000E090D002F090D102F7FC0EC0B7018BE069
:101F00000E94A9020E942B0331E0E31AF108F0922B
:101F1000D102E092D002ECCF63E08CEF92E00E941D
:101F2000220463E086EF92E00E94220410921101E5
:101F300010921001C090C802D090C902E090CA026D
:101F4000F090CB02A70196016091CC027091CD0276
:101F50008091CE029091CF020E94F213882309F45F
:101F600045C020E030E04FE753E4C701B6010E94CE
:101F7000581420E030E0A9010E946B150E94D7158B
:101F80008BE00E94A90220E030E040E450E4609140
:101F9000C8027091C9028091CA029091CB020E943E
:101FA000581420E030E0A9010E946B150E94D7155B
:101FB000F62E6093C6027093C7028CEF92E00E94E7
:101FC00022046F2D86EF92E00E9422048091C802C5
:101FD0009091C902A091CA02B091CB028093CC0229
:101FE0009093CD02A093CE02B093CF028091F502E0
:101FF000823008F09AC1F8948AEE92E00E946D0354
:102000006091F1027091F2028091F3029091F402DA
:10201000789422E030E040E050E00E9421163093B6
:10202000C5022093C4028091E902823008F07FC18A
:10203000F8948EED92E00E946D036091E50270913C
:10204000E6028091E7029091E802789422E030E085
:1020500040E050E00E9421163093C3022093C20258
:102060002091C4023091C50280910E0190910F0120
:102070002817390791F0821793070CF05AC1809105
:10208000C0029091C1020E94B0058091C40290915B
:10209000C50290930F0180930E012091C2023091EE
:1020A000C30280910C0190910D012817390791F01E
:1020B000821793070CF042C18091BC029091BD023F
:1020C0000E94B0058091C2029091C30290930D01CD
:1020D00080930C014091B6025091B7026091B80212
:1020E0007091B9028091080190910901A0910A01B3
:1020F000B0910B01481759076A077B0709F479C0AB
:10210000CE0101960E949706BE016F5F7F4F88ED5A
:1021100092E00E941F06CE0101960E94170670E011
:1021200060E088ED92E00E94010120E0DC014C912A
:1021300065E070E086EF92E00E94000461E070E0EC
:1021400088ED92E00E94010120E0FC01408164E002
:1021500070E086EF92E00E94000462E070E088ED9B
:1021600092E00E94010121E0DC014C9163E070E00B
:1021700086EF92E00E94000463E070E088ED92E058
:102180000E94010120E0FC01408162E070E086EFE6
:1021900092E00E94000464E070E088ED92E00E940A
:1021A000010120E0DC014C9161E070E086EF92E0FB
:1021B0000E94000465E070E088ED92E00E94010159
:1021C00020E0FC01408170E060E086EF92E00E9438
:1021D00000048091B6029091B702A091B802B0912C
:1021E000B9028093080190930901A0930A01B0936A
:1021F0000B014091B2025091B3026091B402709110
:10220000B5028091040190910501A0910601B09161
:102210000701481759076A077B0709F479C0CE01FF
:1022200001960E949706BE016F5F7F4F82ED92E09C
:102230000E941F06CE0101960E94170670E060E022
:1022400082ED92E00E94010120E0DC014C9165E00A
:1022500070E08CEF92E00E94000461E070E082ED9B
:1022600092E00E94010120E0FC01408164E070E006
:102270008CEF92E00E94000462E070E082ED92E058
:102280000E94010121E0DC014C9163E070E08CEFE1
:1022900092E00E94000463E070E082ED92E00E9410
:1022A000010120E0FC01408162E070E08CEF92E0EF
:1022B0000E94000464E070E082ED92E00E9401015F
:1022C00020E0DC014C9161E070E08CEF92E00E9434
:1022D000000465E070E082ED92E00E94010120E0E0
:1022E000FC01408170E060E08CEF92E00E9400040D
:1022F0008091B2029091B302A091B402B091B50264
:102300008093040190930501A0930601B093070107
:1023100080E090E0892B09F4F1C80E947E018823B7
:1023200009F4ECC80E940000E7C8F89469CEF8945C
:1023300084CE8091BE029091BF02A5CE8091BA0258
:102340009091BB02BDCE8E33910509F427C9D5010A
:102350008D935D01BFEFEB1AFB0AE5E9EE16F10480
:1023600009F0F7C81BC921E030E0309372062093D2
:1023700071061F928EE38F931F9283E68F931F92B5
:102380008CE38F938CE992E09F938F931F930F932D
:102390000E947C180E9405050FB6F894DEBF0FBEA0
:1023A000CDBF04C982ED92E00E94170688ED92E04D
:1023B0000C941706662777270C947112FC01882766
:1023C0009927E89421912032E9F3293010F02E303A
:1023D000C8F32B3241F02D3239F4689404C00E94C6
:1023E0004712820F911D219120532A30C0F31EF411
:1023F000909581959F4F08951F93FC0199278827F9
:10240000BC01E89411911032E9F3193010F01E303C
:10241000C8F31B3251F01D3249F4689406C00E9483
:102420003212610F711D811D911D119110531A30CF
:10243000B0F33EF490958095709561957F4F8F4FE6
:102440009F4F1F910895BB272A3051F4992342F4DE
:10245000BDE290958095709561957F4F8F4F9F4F0E
:102460000C945012592F482F372F262F660F771FA5
:10247000881F991F660F771F881F991F620F731F90
:10248000841F951F660F771F881F991F08957AE094
:10249000979F902D879F802D910D11240895BB2724
:1024A000FA01A62F6217710581059105330B30FBE8
:1024B00066F0AA27660F771F881F991FAA1FA21709
:1024C00010F0A21B63953850A9F7A05DAA3308F05D
:1024D000A95DA19336F7B111B1931082CA010C9492
:1024E000E213B0E0A0E0E7E7F2E10C942A155C010A
:1024F0007B016115710519F0DB018D939C938501BA
:102500000F5F1F4FF501D0818D2F90E00E94C11306
:102510006C01892BB9F5DD32B9F50F5F1F4FD5017D
:102520001196DC91C1E05801F1E0AF1AB10843E027
:1025300050E060E770E0C5010E94CA13892B69F57D
:10254000680182E0C80ED11C45E050E06BE670E007
:10255000C6010E94CA13892B21F4680197E0C90EB5
:10256000D11CE114F10419F0D701CD92DC9260E0A6
:1025700070E080E89FEFC111FFC060E070E080E88C
:102580009FE7FAC05801BBCFDB3229F485010E5F0B
:102590001F4FF501D181C0E0C6CF43E050E068E6AF
:1025A00070E0C5010E94CA13892BE9F0F80110E020
:1025B00000E020E030E0A9015F01B0ED8B2E8D0E30
:1025C00089E08815C8F19C2E689491F88C2F88704A
:1025D000C2FF16C0811102C00F5F1F4F3196D50197
:1025E000DC91C92DE9CFE114F10429F00E5F1F4FF2
:1025F000F7011183008360E070E080EC9FE7BCC0CE
:10260000882311F001501109A5E0B0E00E941915CE
:102610009B01AC01220F331F441F551F280D311D94
:10262000411D511D283999E93907490799E1590791
:10263000A8F2C6609C2ED2CFAEEF8A1206C0C3FDB0
:102640003CC09C2E689493F8C9CFDF7DD534A9F5A2
:1026500080818D3239F4C061DF011296818162E0A0
:1026600070E006C0DF018B32C1F3119661E070E0CB
:1026700080535D01A61AB70A8A30F8F4E0E8CE1656
:10268000ECE0DE065CF4B601660F771F660F771F7D
:10269000C60ED71ECC0CDD1CC80ED11C5D01FFEF91
:1026A000AF1ABF0A8C9180538A30A8F1C4FF03C0CF
:1026B000D194C194D1080C0D1D1DC1FF09C0E114B6
:1026C000F10431F081E0A81AB108D701AD92BC92B3
:1026D000CA01B9010E94F713C370C33009F49058BE
:1026E0004B015C0120E030E0A9010E94F213882335
:1026F00009F440C0CFE9D0E017FF05C0119501955E
:102700001109C7E8D0E06E01B8E1CB1AD10880E228
:10271000E82EF12C0FC0D501B1CFFE0125913591E6
:10272000459154910E191F09C501B4010E94581416
:102730004B015C01D501C4010E151F0574F72497E8
:10274000F594E794CC16DD06A9F78A2F880F8B2F16
:10275000881F8F3F49F020E030E0A901C501B40196
:102760000E94F213811106C082E290E090937406F9
:1027700080937306C501B401CDB7DEB7ECE00C94CD
:10278000461591110C94C514803219F0895085506A
:10279000C8F70895FB01DC014150504088F08D914D
:1027A00081341CF08B350CF4805E659161341CF033
:1027B0006B350CF4605E861B611171F3990B089503
:1027C000881BFCCFDC01FC01672F71917723E1F7B7
:1027D000329704C07C916D9370836291AE17BF07EE
:1027E000C8F308950E94341408F481E00895E89431
:1027F00009C097FB3EF490958095709561957F4F49
:102800008F4F9F4F9923A9F0F92F96E9BB279395F6
:10281000F695879577956795B795F111F8CFFAF406
:10282000BB0F11F460FF1BC06F5F7F4F8F4F9F4F37
:1028300016C0882311F096E911C0772321F09EE895
:10284000872F762F05C0662371F096E8862F70E0FB
:1028500060E02AF09A95660F771F881FDAF7880FD5
:102860009695879597F90895990F0008550FAA0B2B
:10287000E0E8FEEF16161706E807F907C0F0121693
:102880001306E407F50798F0621B730B840B950B96
:1028900039F40A2661F0232B242B252B21F40895EB
:1028A0000A2609F4A140A6958FEF811D811D089588
:1028B0000E946B140C94DF140E94D11438F00E9413
:1028C000D81420F0952311F00C94C8140C94CE1455
:1028D00011240C9413150E94F01470F3959FC1F30A
:1028E000950F50E0551F629FF001729FBB27F00DBE
:1028F000B11D639FAA27F00DB11DAA1F649F662713
:10290000B00DA11D661F829F2227B00DA11D621F61
:10291000739FB00DA11D621F839FA00D611D221F1B
:10292000749F3327A00D611D231F849F600D211DFF
:10293000822F762F6A2F11249F5750409AF0F1F082
:1029400088234AF0EE0FFF1FBB1F661F771F881FEB
:1029500091505040A9F79E3F510580F00C94C81447
:102960000C9413155F3FE4F3983ED4F38695779566
:102970006795B795F795E7959F5FC1F7FE2B880F91
:10298000911D9695879597F9089599278827089519
:1029900097F99F6780E870E060E008959FEF80EC12
:1029A000089500240A9416161706180609060895B5
:1029B00000240A9412161306140605060895092E1B
:1029C0000394000C11F4882352F0BB0F40F4BF2B8A
:1029D00011F460FF04C06F5F7F4F8F4F9F4F0895CA
:1029E00057FD9058440F551F59F05F3F71F04795C0
:1029F000880F97FB991F61F09F3F79F087950895A5
:102A0000121613061406551FF2CF4695F1DF08C0C3
:102A1000161617061806991FF1CF869571056105E0
:102A200008940895E894BB2766277727CB0197F988
:102A300008950E945B15A59F900DB49F900DA49FD3
:102A4000800D911D112408952F923F924F925F9215
:102A50006F927F928F929F92AF92BF92CF92DF92AE
:102A6000EF92FF920F931F93CF93DF93CDB7DEB713
:102A7000CA1BDB0B0FB6F894DEBF0FBECDBF0994A7
:102A80002A88398848885F846E847D848C849B84FE
:102A9000AA84B984C884DF80EE80FD800C811B810C
:102AA000AA81B981CE0FD11D0FB6F894DEBF0FBE3B
:102AB000CDBFED010895A29FB001B39FC001A39FB8
:102AC000700D811D1124911DB29F700D811D112467
:102AD000911D08955058BB27AA270E9482150C9477
:102AE000DF140E94D11438F00E94D81420F039F479
:102AF0009F3F19F426F40C94CE140EF4E095E7FBF6
:102B00000C94C814E92F0E94F01458F3BA17620706
:102B100073078407950720F079F4A6F50C94121535
:102B20000EF4E0950B2EBA2FA02D0B01B9019001E8
:102B30000C01CA01A0011124FF27591B99F0593F2C
:102B400050F4503E68F11A16F040A22F232F342F74
:102B50004427585FF3CF469537952795A795F040C2
:102B60005395C9F77EF41F16BA0B620B730B840BD7
:102B7000BAF09150A1F0FF0FBB1F661F771F881F8F
:102B8000C2F70EC0BA0F621F731F841F48F48795E7
:102B900077956795B795F7959E3F08F0B0CF9395D9
:102BA000880F08F09927EE0F9795879508950E9452
:102BB000DE156894B1110C94131508950E94F81451
:102BC00088F09F5798F0B92F9927B751B0F0E1F0EE
:102BD000660F771F881F991F1AF0BA95C9F714C09E
:102BE000B13091F00E941215B1E008950C941215C5
:102BF000672F782F8827B85F39F0B93FCCF38695D7
:102C000077956795B395D9F73EF490958095709533
:102C100061957F4F8F4F9F4F089597FB072E16F4B6
:102C2000009407D077FD09D00E94401607FC05D01C
:102C30003EF4909581959F4F0895709561957F4FD3
:102C40000895052E97FB1EF400940E94381657FD38
:102C500007D00E94541607FC03D04EF40C9438168B
:102C600050954095309521953F4F4F4F5F4F0895B8
:102C700090958095709561957F4F8F4F9F4F0895E8
:102C8000AA1BBB1B51E107C0AA1FBB1FA617B70792
:102C900010F0A61BB70B881F991F5A95A9F78095AE
:102CA0009095BC01CD010895A1E21A2EAA1BBB1B71
:102CB000FD010DC0AA1FBB1FEE1FFF1FA217B30708
:102CC000E407F50720F0A21BB30BE40BF50B661F1E
:102CD000771F881F991F1A9469F7609570958095E2
:102CE00090959B01AC01BD01CF010895EE0FFF1F30
:102CF0000590F491E02D09940F931F93CF93DF93E8
:102D00008230910510F482E090E0E0917706F09136
:102D1000780630E020E0B0E0A0E0309799F421158B
:102D2000310509F44AC0281B390B24303105D8F588
:102D30008A819B816115710589F1FB0193838283EF
:102D4000FE0111C04081518102811381481759074A
:102D5000E0F04817590799F4109761F012960C9318
:102D6000129713961C933296CF01DF91CF911F914A
:102D70000F9108950093770610937806F4CF2115EC
:102D8000310551F04217530738F0A901DB019A01D0
:102D9000BD01DF01F801C1CFEF01F9CF90937806B3
:102DA00080937706CDCFFE01E20FF31F81939193BD
:102DB0002250310939832883D7CF2091750630916D
:102DC0007606232B41F420911401309115013093A4
:102DD000760620937506209112013091130121157A
:102DE000310541F42DB73EB74091160150911701BE
:102DF000241B350BE0917506F0917606E217F30778
:102E0000A0F42E1B3F0B2817390778F0AC014E5F5A
:102E10005F4F2417350748F04E0F5F1F509376061B
:102E200040937506819391939FCFF0E0E0E09CCFB3
:102E3000CF93DF930097E9F0FC013297138212825F
:102E4000A0917706B0917806ED0130E020E0109770
:102E5000A1F420813181820F931F2091750630915A
:102E600076062817390709F061C0F0937606E093DB
:102E70007506DF91CF910895EA01CE17DF07E8F5D7
:102E80004A815B819E0141155105B1F7E901FB8340
:102E9000EA8349915991C40FD51FEC17FD0761F4DE
:102EA000808191810296840F951FE901998388831F
:102EB000828193819B838A83F0E0E0E012968D917A
:102EC0009C9113970097B9F52D913C911197CD01E5
:102ED0000296820F931F209175063091760628176F
:102EE000390739F6309751F5109278061092770627
:102EF000B0937606A0937506BCCFD383C28340817E
:102F00005181840F951FC817D90761F44E5F5F4F39
:102F100088819981480F591F518340838A819B8101
:102F2000938382832115310509F0B0CFF0937806A1
:102F3000E09377069ECFFD01DC01C0CF13821282A1
:102F4000D7CFB0E0A0E0E7EAF7E10C9426158C01BA
:102F5000009751F4CB010E947C168C01C801CDB7BB
:102F6000DEB7E0E10C944215FC01E60FF71F9C016F
:102F700022503109E217F30708F49DC0D901CD9121
:102F8000DC911197C617D70798F0C530D10530F3FB
:102F9000CE0104978617970708F3C61BD70B229715
:102FA000C193D1936D937C93CF010E941817D6CF14
:102FB0005B01AC1ABD0A4C018C0E9D1EA0917706D8
:102FC000B0917806512C412CF12CE12C109731F561
:102FD00080917506909176068815990509F05CC078
:102FE0004616570608F058C08091120190911301BF
:102FF000009741F48DB79EB740911601509117018B
:10300000841B950BE817F90708F055C0F093760676
:10301000E0937506F90171836083A0CF8D919C9137
:10302000119712966C90129713967C901397A8158F
:10303000B90559F56C0142E0C40ED11CCA14DB0479
:1030400020F1AC014A195B09DA011296159780F05C
:103050006282738251834083D9016D937C93E11422
:10306000F10471F0D7011396FC93EE93129776CF8B
:1030700022968C0F9D1FF90191838083F301EFCF7E
:10308000F0937806E093770669CF4816590608F45E
:103090002C017D01D3019ACFCB010E947C167C01CB
:1030A000009749F0AE01B8010E945E18C8010E9465
:1030B0001817870153CF10E000E050CFFB01DC016F
:1030C00002C001900D9241505040D8F70895FB0185
:1030D000DC0101900D920020E1F70895FB01DC0175
:1030E0004150504030F08D910190801919F400202A
:1030F000B9F7881B990B0895AEE0B0E0E2E8F8E17B
:103100000C9432150D891E8986E08C831A830983FD
:103110008FEF9FE79E838D83AE01475E5F4F6F8980
:10312000788DCE0101960E949F182F813885020F5D
:10313000131FF80110822E96E4E00C944E15ABE0BC
:10314000B0E0E5EAF8E10C9424157C013B018A012A
:10315000FC0117821682838181FFC8C1CE010196CE
:103160005C01F7019381F30193FD859193FF8191B8
:103170003F01882309F453C1853239F493FD8591C9
:1031800093FF81913F01853229F4B70190E00E94BD
:103190008F1AE7CF912C212C312CFFE1F31538F059
:1031A0008B3211F190F4803209F1833229F137FC2E
:1031B0003CC020ED280F2A3050F536FE20C08AE0B2
:1031C000989E200D1124922E06C08D3291F08033EE
:1031D00071F7689430F8F30193FD859193FF819125
:1031E0003F018111DACF21C0689431F8689432F838
:1031F000F2CF689433F8EFCF689434F8ECCFEAE07C
:103200002E9E200D1124222E689435F8E4CF8E32A4
:1032100029F436FC04C1689436F8DDCF8C3619F4F5
:10322000689437F8D8CF8836B1F2982F9F7D95549F
:103230009330E0F08336A1F18337C1F1833509F093
:1032400063C02801F2E04F0E511CF801C080D1800C
:10325000692D70E036FC02C06FEF7FEFC6010E945F
:10326000791A4C01689437F882010AC00C5F1F4F2D
:10327000FFE3F98388248394912C6501E89437F85F
:1032800033FE2DC0522C8114910471F5552009F4A0
:1032900068CFB70180E290E00E948F1A5A94F6CF6F
:1032A000F801808189830E5F1F4FE4CF2801F2E08F
:1032B0004F0E511CF801C080D180692D70E036FCA2
:1032C00002C06FEF7FEFC6010E94841A4C01820199
:1032D000D5CFB70180E290E00E948F1A2A9428147B
:1032E000190409F0B0F7CECFF60137FC859137FE0F
:1032F00081916F01B70190E00E948F1A51105A948A
:10330000F1E08F1A9108BFCF843619F0893609F0A1
:1033100077C0F80137FE6BC0608171818281938133
:103320000C5F1F4FF32DFF763F2E97FF09C090953E
:103330008095709561957F4F8F4F9F4F689437F8B8
:103340002AE030E0A5010E94BF1AC82ECA188C2CB2
:10335000432C36FE0CC0E89440F8C91440F434FE07
:1033600005C032FC03C0F32DFE7E4F2E892C44FE97
:1033700095C0FE01EC0DF11D8081803309F087C0FE
:10338000242D297E422E842D8870582E43FC95C012
:1033900040FE8FC09C2C821418F42C0C922C981890
:1033A00044FE91C0B70180E390E00E948F1A42FE74
:1033B00009C088E790E041FE02C088E590E0B701CF
:1033C0000E948F1AC91408F48AC0CA94D12C9FEFA6
:1033D000C91AD90ACA0CDB1CF60182916F01B70128
:1033E00090E00E948F1AAC14BD04B1F74FCF6081FA
:1033F0007181072E000C880B990B0E5F1F4F92CF27
:10340000D32CE894D4F82AE030E0853739F1232D25
:10341000297FD22E8F3601F148F48835A9F0F701C3
:10342000868197812B96E2E10C944015803749F014
:103430008837A9F7D4FE02C06894D2F820E130E0C2
:103440000DC06894D4F8F6CF34FE03C0822F866096
:10345000D82E20E132E002C028E030E0F801D7FEAB
:103460000FC060817181828193810C5F1F4FA50124
:103470000E94BF1AC82ECA183D2CE89437F867CFAF
:103480006081718190E080E00E5F1F4FF0CF42FCC1
:1034900002C0839478CF8394839475CF842D8678EB
:1034A00009F471CFF6CFB70180E290E00E948F1A45
:1034B00083948214C0F3512C73CF522C5818821469
:1034C00008F46ECFF8CF842D867809F47BCF8BE299
:1034D00041FE80E247FC8DE2B70190E071CFB70179
:1034E00080E390E00E948F1A9A946CCF8FEF9FEF49
:1034F00099CFFC010590615070400110D8F780957C
:1035000090958E0F9F1F0895FC01615070400190AF
:103510000110D8F7809590958E0F9F1F08950F93F7
:103520001F93CF93DF93182F092FEB018B8181FD20
:1035300009C01FEF0FEF812F902FDF91CF911F91C7
:103540000F91089582FF14C02E813F818C819D814F
:10355000281739073CF4E881F981CF010196998356
:10356000888310838E819F8101969F838E83E3CF12
:10357000E885F985812F0995892BA1F3DACFFA0126
:10358000AA27283051F1203181F1E8946F936E7FA2
:103590006E5F7F4F8F4F9F4FAF4FB1E03ED0B4E093
:1035A0003CD0670F781F891F9A1FA11D680F791FD4
:1035B0008A1F911DA11D6A0F711D811D911DA11DE5
:1035C00020D009F468943F912AE0269F11243019F5
:1035D000305D3193DEF6CF010895462F4770405D90
:1035E0004193B3E00FD0C9F7F6CF462F4F70405D3F
:1035F0004A3318F0495D31FD4052419302D0A9F79A
:10360000EACFB4E0A6959795879577956795BA9593
:10361000C9F700976105710508959B01AC010A2E59
:1036200006945795479537952795BA95C9F7620F30
:10363000731F841F951FA01D089510E0C6EDD0E0F4
:1036400004C0FE010E9476162196C73DD107C9F736
:04365000F894FFCF1C
:103654006C036C03FFFFFFFFFFFFFFFFFFFFFFFF94
:1036640001000000790680004177427F434E447E8A
:10367400454F4647475E483749304A3C4C0E4E76E4
:103684004F7E50675205535B540F553E59275B4E8E
:103694005D785F086177621F630D643D654F66471F
:1036A400675E681769106A3C6C0E6E156F7E7067F2
:1036B4007205735B740F751C79272D012000307E11
:1036C4003130326D33793433355B365F3770387F60
:1036D400397B300000000000B401140141010102F3
:1036E40072015001640120002563256325332E33C4
:1036F4006925692563002563256325332E336925F0
:103704006300434F524500726561647900434F5230
:103714004520435054204E41562050414E454C00C4
:1037240073696D2F636F636B7069742F7261646961
:103734006F732F6E6176315F667265715F687A00B0
:1037440073696D2F636F636B7069742F7261646941
:103754006F732F6E6176315F73746462795F667222
:1037640065715F687A006C616D696E61722F4237B2
:1037740033382F656C6563747269632F70616E658D
:103784006C5F6272696768746E6573730025632584
:103794006325732563002563256325312E3169254F
:1037A400322E3269253035692E253032692573254C
:1037B40063002563256325312E316925322E326954
:1037C400253035692E25303269255325630025635C
:1037D400256325532563002563256325332E33692B
:1037E400253037692E25303269256300256325632A
:0437F4002563000049
:00000001FF
